{
	"data": {
		"bytecode": {
			"linkReferences": {},
			"object": "60606040526729a2241af62c0000600255341561001857fe5b5b60b9806100276000396000f30060606040526000357c0100000000000000000000000000000000000000000000000000000000900463ffffffff168063783896f714603a575bfe5b60406042565b005b33600060006101000a81548173ffffffffffffffffffffffffffffffffffffffff021916908373ffffffffffffffffffffffffffffffffffffffff160217905550346001819055505b5600a165627a7a72305820afcb65352c727978b9472845c5d602554dabce3dd67009aa859497cdc51b879f0029",
			"opcodes": "PUSH1 0x60 PUSH1 0x40 MSTORE PUSH8 0x29A2241AF62C0000 PUSH1 0x2 SSTORE CALLVALUE ISZERO PUSH2 0x18 JUMPI INVALID JUMPDEST JUMPDEST PUSH1 0xB9 DUP1 PUSH2 0x27 PUSH1 0x0 CODECOPY PUSH1 0x0 RETURN STOP PUSH1 0x60 PUSH1 0x40 MSTORE PUSH1 0x0 CALLDATALOAD PUSH29 0x100000000000000000000000000000000000000000000000000000000 SWAP1 DIV PUSH4 0xFFFFFFFF AND DUP1 PUSH4 0x783896F7 EQ PUSH1 0x3A JUMPI JUMPDEST INVALID JUMPDEST PUSH1 0x40 PUSH1 0x42 JUMP JUMPDEST STOP JUMPDEST CALLER PUSH1 0x0 PUSH1 0x0 PUSH2 0x100 EXP DUP2 SLOAD DUP2 PUSH20 0xFFFFFFFFFFFFFFFFFFFFFFFFFFFFFFFFFFFFFFFF MUL NOT AND SWAP1 DUP4 PUSH20 0xFFFFFFFFFFFFFFFFFFFFFFFFFFFFFFFFFFFFFFFF AND MUL OR SWAP1 SSTORE POP CALLVALUE PUSH1 0x1 DUP2 SWAP1 SSTORE POP JUMPDEST JUMP STOP LOG1 PUSH6 0x627A7A723058 SHA3 0xaf 0xcb PUSH6 0x352C727978B9 0x47 0x28 GASLIMIT 0xc5 0xd6 MUL SSTORE 0x4d 0xab 0xce 0x3d 0xd6 PUSH17 0x9AA859497CDC51B879F00290000000000 "
		},
		"gasEstimates": {
			"creation": {
				"codeDepositCost": "37000",
				"executionCost": "20089",
				"totalCost": "57089"
			},
			"external": {
				"AlmacenEther()": "40368"
			}
		},
		"methodIdentifiers": {
			"AlmacenEther()": "783896f7"
		}
	},
	"abi": [
		{
			"constant": false,
			"inputs": [],
			"name": "AlmacenEther",
			"outputs": [],
			"payable": true,
			"type": "function",
			"stateMutability": "payable"
		}
	]
}