{
	"data": {
		"bytecode": {
			"linkReferences": {},
			"object": "6080604052671bc16d674ec8000060025534801561001c57600080fd5b5061052c8061002c6000396000f3fe60806040526004361061001d5760003560e01c8062895d4a14610022575b600080fd5b61003c6004803603810190610037919061027c565b61003e565b005b670de0b6b3a7640000341015610089576040517f08c379a00000000000000000000000000000000000000000000000000000000081526004016100809061031e565b60405180910390fd5b61009161013b565b604051806060016040528085815260200184815260200183815250905080600360003373ffffffffffffffffffffffffffffffffffffffff1673ffffffffffffffffffffffffffffffffffffffff168152602001908152602001600020600082015181600001908051906020019061010a92919061015c565b50602082015181600101908051906020019061012792919061015c565b506040820151816002015590505050505050565b60405180606001604052806060815260200160608152602001600081525090565b828054610168906103be565b90600052602060002090601f01602090048101928261018a57600085556101d1565b82601f106101a357805160ff19168380011785556101d1565b828001600101855582156101d1579182015b828111156101d05782518255916020019190600101906101b5565b5b5090506101de91906101e2565b5090565b5b808211156101fb5760008160009055506001016101e3565b5090565b600061021261020d84610363565b61033e565b90508281526020810184848401111561022a57600080fd5b6102358482856103af565b509392505050565b600082601f83011261024e57600080fd5b813561025e8482602086016101ff565b91505092915050565b600081359050610276816104df565b92915050565b60008060006060848603121561029157600080fd5b600084013567ffffffffffffffff8111156102ab57600080fd5b6102b78682870161023d565b935050602084013567ffffffffffffffff8111156102d457600080fd5b6102e08682870161023d565b92505060406102f186828701610267565b9150509250925092565b6000610308602283610394565b915061031382610490565b604082019050919050565b60006020820190508181036000830152610337816102fb565b9050919050565b6000610348610359565b905061035482826103f0565b919050565b6000604051905090565b600067ffffffffffffffff82111561037e5761037d610450565b5b6103878261047f565b9050602081019050919050565b600082825260208201905092915050565b6000819050919050565b82818337600083830152505050565b600060028204905060018216806103d657607f821691505b602082108114156103ea576103e9610421565b5b50919050565b6103f98261047f565b810181811067ffffffffffffffff8211171561041857610417610450565b5b80604052505050565b7f4e487b7100000000000000000000000000000000000000000000000000000000600052602260045260246000fd5b7f4e487b7100000000000000000000000000000000000000000000000000000000600052604160045260246000fd5b6000601f19601f8301169050919050565b7f6e656365736974617320656e7669617220616c206d656e6f7320756e2065746860008201527f6572000000000000000000000000000000000000000000000000000000000000602082015250565b6104e8816103a5565b81146104f357600080fd5b5056fea26469706673582212200febaed5519aba33d119946d6ba0e7bfd72fdc60516994fb4b389ac8835cd1a064736f6c63430008040033",
			"opcodes": "PUSH1 0x80 PUSH1 0x40 MSTORE PUSH8 0x1BC16D674EC80000 PUSH1 0x2 SSTORE CALLVALUE DUP1 ISZERO PUSH2 0x1C JUMPI PUSH1 0x0 DUP1 REVERT JUMPDEST POP PUSH2 0x52C DUP1 PUSH2 0x2C PUSH1 0x0 CODECOPY PUSH1 0x0 RETURN INVALID PUSH1 0x80 PUSH1 0x40 MSTORE PUSH1 0x4 CALLDATASIZE LT PUSH2 0x1D JUMPI PUSH1 0x0 CALLDATALOAD PUSH1 0xE0 SHR DUP1 PUSH3 0x895D4A EQ PUSH2 0x22 JUMPI JUMPDEST PUSH1 0x0 DUP1 REVERT JUMPDEST PUSH2 0x3C PUSH1 0x4 DUP1 CALLDATASIZE SUB DUP2 ADD SWAP1 PUSH2 0x37 SWAP2 SWAP1 PUSH2 0x27C JUMP JUMPDEST PUSH2 0x3E JUMP JUMPDEST STOP JUMPDEST PUSH8 0xDE0B6B3A7640000 CALLVALUE LT ISZERO PUSH2 0x89 JUMPI PUSH1 0x40 MLOAD PUSH32 0x8C379A000000000000000000000000000000000000000000000000000000000 DUP2 MSTORE PUSH1 0x4 ADD PUSH2 0x80 SWAP1 PUSH2 0x31E JUMP JUMPDEST PUSH1 0x40 MLOAD DUP1 SWAP2 SUB SWAP1 REVERT JUMPDEST PUSH2 0x91 PUSH2 0x13B JUMP JUMPDEST PUSH1 0x40 MLOAD DUP1 PUSH1 0x60 ADD PUSH1 0x40 MSTORE DUP1 DUP6 DUP2 MSTORE PUSH1 0x20 ADD DUP5 DUP2 MSTORE PUSH1 0x20 ADD DUP4 DUP2 MSTORE POP SWAP1 POP DUP1 PUSH1 0x3 PUSH1 0x0 CALLER PUSH20 0xFFFFFFFFFFFFFFFFFFFFFFFFFFFFFFFFFFFFFFFF AND PUSH20 0xFFFFFFFFFFFFFFFFFFFFFFFFFFFFFFFFFFFFFFFF AND DUP2 MSTORE PUSH1 0x20 ADD SWAP1 DUP2 MSTORE PUSH1 0x20 ADD PUSH1 0x0 KECCAK256 PUSH1 0x0 DUP3 ADD MLOAD DUP2 PUSH1 0x0 ADD SWAP1 DUP1 MLOAD SWAP1 PUSH1 0x20 ADD SWAP1 PUSH2 0x10A SWAP3 SWAP2 SWAP1 PUSH2 0x15C JUMP JUMPDEST POP PUSH1 0x20 DUP3 ADD MLOAD DUP2 PUSH1 0x1 ADD SWAP1 DUP1 MLOAD SWAP1 PUSH1 0x20 ADD SWAP1 PUSH2 0x127 SWAP3 SWAP2 SWAP1 PUSH2 0x15C JUMP JUMPDEST POP PUSH1 0x40 DUP3 ADD MLOAD DUP2 PUSH1 0x2 ADD SSTORE SWAP1 POP POP POP POP POP POP JUMP JUMPDEST PUSH1 0x40 MLOAD DUP1 PUSH1 0x60 ADD PUSH1 0x40 MSTORE DUP1 PUSH1 0x60 DUP2 MSTORE PUSH1 0x20 ADD PUSH1 0x60 DUP2 MSTORE PUSH1 0x20 ADD PUSH1 0x0 DUP2 MSTORE POP SWAP1 JUMP JUMPDEST DUP3 DUP1 SLOAD PUSH2 0x168 SWAP1 PUSH2 0x3BE JUMP JUMPDEST SWAP1 PUSH1 0x0 MSTORE PUSH1 0x20 PUSH1 0x0 KECCAK256 SWAP1 PUSH1 0x1F ADD PUSH1 0x20 SWAP1 DIV DUP2 ADD SWAP3 DUP3 PUSH2 0x18A JUMPI PUSH1 0x0 DUP6 SSTORE PUSH2 0x1D1 JUMP JUMPDEST DUP3 PUSH1 0x1F LT PUSH2 0x1A3 JUMPI DUP1 MLOAD PUSH1 0xFF NOT AND DUP4 DUP1 ADD OR DUP6 SSTORE PUSH2 0x1D1 JUMP JUMPDEST DUP3 DUP1 ADD PUSH1 0x1 ADD DUP6 SSTORE DUP3 ISZERO PUSH2 0x1D1 JUMPI SWAP2 DUP3 ADD JUMPDEST DUP3 DUP2 GT ISZERO PUSH2 0x1D0 JUMPI DUP3 MLOAD DUP3 SSTORE SWAP2 PUSH1 0x20 ADD SWAP2 SWAP1 PUSH1 0x1 ADD SWAP1 PUSH2 0x1B5 JUMP JUMPDEST JUMPDEST POP SWAP1 POP PUSH2 0x1DE SWAP2 SWAP1 PUSH2 0x1E2 JUMP JUMPDEST POP SWAP1 JUMP JUMPDEST JUMPDEST DUP1 DUP3 GT ISZERO PUSH2 0x1FB JUMPI PUSH1 0x0 DUP2 PUSH1 0x0 SWAP1 SSTORE POP PUSH1 0x1 ADD PUSH2 0x1E3 JUMP JUMPDEST POP SWAP1 JUMP JUMPDEST PUSH1 0x0 PUSH2 0x212 PUSH2 0x20D DUP5 PUSH2 0x363 JUMP JUMPDEST PUSH2 0x33E JUMP JUMPDEST SWAP1 POP DUP3 DUP2 MSTORE PUSH1 0x20 DUP2 ADD DUP5 DUP5 DUP5 ADD GT ISZERO PUSH2 0x22A JUMPI PUSH1 0x0 DUP1 REVERT JUMPDEST PUSH2 0x235 DUP5 DUP3 DUP6 PUSH2 0x3AF JUMP JUMPDEST POP SWAP4 SWAP3 POP POP POP JUMP JUMPDEST PUSH1 0x0 DUP3 PUSH1 0x1F DUP4 ADD SLT PUSH2 0x24E JUMPI PUSH1 0x0 DUP1 REVERT JUMPDEST DUP2 CALLDATALOAD PUSH2 0x25E DUP5 DUP3 PUSH1 0x20 DUP7 ADD PUSH2 0x1FF JUMP JUMPDEST SWAP2 POP POP SWAP3 SWAP2 POP POP JUMP JUMPDEST PUSH1 0x0 DUP2 CALLDATALOAD SWAP1 POP PUSH2 0x276 DUP2 PUSH2 0x4DF JUMP JUMPDEST SWAP3 SWAP2 POP POP JUMP JUMPDEST PUSH1 0x0 DUP1 PUSH1 0x0 PUSH1 0x60 DUP5 DUP7 SUB SLT ISZERO PUSH2 0x291 JUMPI PUSH1 0x0 DUP1 REVERT JUMPDEST PUSH1 0x0 DUP5 ADD CALLDATALOAD PUSH8 0xFFFFFFFFFFFFFFFF DUP2 GT ISZERO PUSH2 0x2AB JUMPI PUSH1 0x0 DUP1 REVERT JUMPDEST PUSH2 0x2B7 DUP7 DUP3 DUP8 ADD PUSH2 0x23D JUMP JUMPDEST SWAP4 POP POP PUSH1 0x20 DUP5 ADD CALLDATALOAD PUSH8 0xFFFFFFFFFFFFFFFF DUP2 GT ISZERO PUSH2 0x2D4 JUMPI PUSH1 0x0 DUP1 REVERT JUMPDEST PUSH2 0x2E0 DUP7 DUP3 DUP8 ADD PUSH2 0x23D JUMP JUMPDEST SWAP3 POP POP PUSH1 0x40 PUSH2 0x2F1 DUP7 DUP3 DUP8 ADD PUSH2 0x267 JUMP JUMPDEST SWAP2 POP POP SWAP3 POP SWAP3 POP SWAP3 JUMP JUMPDEST PUSH1 0x0 PUSH2 0x308 PUSH1 0x22 DUP4 PUSH2 0x394 JUMP JUMPDEST SWAP2 POP PUSH2 0x313 DUP3 PUSH2 0x490 JUMP JUMPDEST PUSH1 0x40 DUP3 ADD SWAP1 POP SWAP2 SWAP1 POP JUMP JUMPDEST PUSH1 0x0 PUSH1 0x20 DUP3 ADD SWAP1 POP DUP2 DUP2 SUB PUSH1 0x0 DUP4 ADD MSTORE PUSH2 0x337 DUP2 PUSH2 0x2FB JUMP JUMPDEST SWAP1 POP SWAP2 SWAP1 POP JUMP JUMPDEST PUSH1 0x0 PUSH2 0x348 PUSH2 0x359 JUMP JUMPDEST SWAP1 POP PUSH2 0x354 DUP3 DUP3 PUSH2 0x3F0 JUMP JUMPDEST SWAP2 SWAP1 POP JUMP JUMPDEST PUSH1 0x0 PUSH1 0x40 MLOAD SWAP1 POP SWAP1 JUMP JUMPDEST PUSH1 0x0 PUSH8 0xFFFFFFFFFFFFFFFF DUP3 GT ISZERO PUSH2 0x37E JUMPI PUSH2 0x37D PUSH2 0x450 JUMP JUMPDEST JUMPDEST PUSH2 0x387 DUP3 PUSH2 0x47F JUMP JUMPDEST SWAP1 POP PUSH1 0x20 DUP2 ADD SWAP1 POP SWAP2 SWAP1 POP JUMP JUMPDEST PUSH1 0x0 DUP3 DUP3 MSTORE PUSH1 0x20 DUP3 ADD SWAP1 POP SWAP3 SWAP2 POP POP JUMP JUMPDEST PUSH1 0x0 DUP2 SWAP1 POP SWAP2 SWAP1 POP JUMP JUMPDEST DUP3 DUP2 DUP4 CALLDATACOPY PUSH1 0x0 DUP4 DUP4 ADD MSTORE POP POP POP JUMP JUMPDEST PUSH1 0x0 PUSH1 0x2 DUP3 DIV SWAP1 POP PUSH1 0x1 DUP3 AND DUP1 PUSH2 0x3D6 JUMPI PUSH1 0x7F DUP3 AND SWAP2 POP JUMPDEST PUSH1 0x20 DUP3 LT DUP2 EQ ISZERO PUSH2 0x3EA JUMPI PUSH2 0x3E9 PUSH2 0x421 JUMP JUMPDEST JUMPDEST POP SWAP2 SWAP1 POP JUMP JUMPDEST PUSH2 0x3F9 DUP3 PUSH2 0x47F JUMP JUMPDEST DUP2 ADD DUP2 DUP2 LT PUSH8 0xFFFFFFFFFFFFFFFF DUP3 GT OR ISZERO PUSH2 0x418 JUMPI PUSH2 0x417 PUSH2 0x450 JUMP JUMPDEST JUMPDEST DUP1 PUSH1 0x40 MSTORE POP POP POP JUMP JUMPDEST PUSH32 0x4E487B7100000000000000000000000000000000000000000000000000000000 PUSH1 0x0 MSTORE PUSH1 0x22 PUSH1 0x4 MSTORE PUSH1 0x24 PUSH1 0x0 REVERT JUMPDEST PUSH32 0x4E487B7100000000000000000000000000000000000000000000000000000000 PUSH1 0x0 MSTORE PUSH1 0x41 PUSH1 0x4 MSTORE PUSH1 0x24 PUSH1 0x0 REVERT JUMPDEST PUSH1 0x0 PUSH1 0x1F NOT PUSH1 0x1F DUP4 ADD AND SWAP1 POP SWAP2 SWAP1 POP JUMP JUMPDEST PUSH32 0x6E656365736974617320656E7669617220616C206D656E6F7320756E20657468 PUSH1 0x0 DUP3 ADD MSTORE PUSH32 0x6572000000000000000000000000000000000000000000000000000000000000 PUSH1 0x20 DUP3 ADD MSTORE POP JUMP JUMPDEST PUSH2 0x4E8 DUP2 PUSH2 0x3A5 JUMP JUMPDEST DUP2 EQ PUSH2 0x4F3 JUMPI PUSH1 0x0 DUP1 REVERT JUMPDEST POP JUMP INVALID LOG2 PUSH5 0x6970667358 0x22 SLT KECCAK256 0xF 0xEB 0xAE 0xD5 MLOAD SWAP11 0xBA CALLER 0xD1 NOT SWAP5 PUSH14 0x6BA0E7BFD72FDC60516994FB4B38 SWAP11 0xC8 DUP4 0x5C 0xD1 LOG0 PUSH5 0x736F6C6343 STOP ADDMOD DIV STOP CALLER "
		},
		"gasEstimates": {
			"creation": {
				"codeDepositCost": "264800",
				"executionCost": "20312",
				"totalCost": "285112"
			},
			"external": {
				"Invertir(string,string,uint256)": "infinite"
			}
		},
		"methodIdentifiers": {
			"Invertir(string,string,uint256)": "00895d4a"
		}
	},
	"abi": [
		{
			"inputs": [
				{
					"internalType": "string",
					"name": "_name",
					"type": "string"
				},
				{
					"internalType": "string",
					"name": "_wallet",
					"type": "string"
				},
				{
					"internalType": "uint256",
					"name": "_deposit",
					"type": "uint256"
				}
			],
			"name": "Invertir",
			"outputs": [],
			"stateMutability": "payable",
			"type": "function"
		}
	]
}