{
	"contracts/contratoB.sol": {
		"actions": {
			"abi": [
				{
					"inputs": [],
					"name": "Dataestable",
					"outputs": [],
					"stateMutability": "payable",
					"type": "function"
				},
				{
					"inputs": [],
					"name": "EstadoAlmacen",
					"outputs": [
						{
							"internalType": "uint256",
							"name": "",
							"type": "uint256"
						}
					],
					"stateMutability": "view",
					"type": "function"
				},
				{
					"inputs": [
						{
							"internalType": "string",
							"name": "name",
							"type": "string"
						},
						{
							"internalType": "string",
							"name": "wallet",
							"type": "string"
						},
						{
							"internalType": "uint256",
							"name": "inversion",
							"type": "uint256"
						}
					],
					"name": "Invertir",
					"outputs": [],
					"stateMutability": "payable",
					"type": "function"
				},
				{
					"inputs": [
						{
							"internalType": "address",
							"name": "addr",
							"type": "address"
						}
					],
					"name": "getUser",
					"outputs": [
						{
							"internalType": "string",
							"name": "",
							"type": "string"
						},
						{
							"internalType": "string",
							"name": "",
							"type": "string"
						},
						{
							"internalType": "uint256",
							"name": "",
							"type": "uint256"
						}
					],
					"stateMutability": "view",
					"type": "function"
				},
				{
					"inputs": [],
					"name": "owner",
					"outputs": [
						{
							"internalType": "address payable",
							"name": "",
							"type": "address"
						}
					],
					"stateMutability": "view",
					"type": "function"
				},
				{
					"inputs": [
						{
							"internalType": "uint256",
							"name": "amount",
							"type": "uint256"
						},
						{
							"internalType": "address payable",
							"name": "_to",
							"type": "address"
						}
					],
					"name": "transferMoney",
					"outputs": [],
					"stateMutability": "nonpayable",
					"type": "function"
				}
			],
			"devdoc": {
				"kind": "dev",
				"methods": {},
				"version": 1
			},
			"evm": {
				"assembly": "    /* \"contracts/contratoB.sol\":140:2236  contract actions {\r... */\n  mstore(0x40, 0x80)\n    /* \"contracts/contratoB.sol\":270:277  2 ether */\n  0x1bc16d674ec80000\n    /* \"contracts/contratoB.sol\":253:277  uint256 limite = 2 ether */\n  0x02\n  sstore\n    /* \"contracts/contratoB.sol\":140:2236  contract actions {\r... */\n  callvalue\n  dup1\n  iszero\n  tag_1\n  jumpi\n  0x00\n  dup1\n  revert\ntag_1:\n  pop\n  dataSize(sub_0)\n  dup1\n  dataOffset(sub_0)\n  0x00\n  codecopy\n  0x00\n  return\nstop\n\nsub_0: assembly {\n        /* \"contracts/contratoB.sol\":140:2236  contract actions {\r... */\n      mstore(0x40, 0x80)\n      jumpi(tag_1, lt(calldatasize, 0x04))\n      shr(0xe0, calldataload(0x00))\n      dup1\n      0x895d4a\n      eq\n      tag_2\n      jumpi\n      dup1\n      0x6f77926b\n      eq\n      tag_3\n      jumpi\n      dup1\n      0x792889aa\n      eq\n      tag_4\n      jumpi\n      dup1\n      0x8098831b\n      eq\n      tag_5\n      jumpi\n      dup1\n      0x8da5cb5b\n      eq\n      tag_6\n      jumpi\n      dup1\n      0xa2f45014\n      eq\n      tag_7\n      jumpi\n    tag_1:\n      0x00\n      dup1\n      revert\n        /* \"contracts/contratoB.sol\":1145:1588  function Invertir (string memory name, string memory wallet, uint inversion) external payable{\r... */\n    tag_2:\n      tag_8\n      0x04\n      dup1\n      calldatasize\n      sub\n      dup2\n      add\n      swap1\n      tag_9\n      swap2\n      swap1\n      tag_10\n      jump\t// in\n    tag_9:\n      tag_11\n      jump\t// in\n    tag_8:\n      stop\n        /* \"contracts/contratoB.sol\":1645:1849  function getUser (address addr ) external view returns (string memory, string memory, uint){\r... */\n    tag_3:\n      callvalue\n      dup1\n      iszero\n      tag_12\n      jumpi\n      0x00\n      dup1\n      revert\n    tag_12:\n      pop\n      tag_13\n      0x04\n      dup1\n      calldatasize\n      sub\n      dup2\n      add\n      swap1\n      tag_14\n      swap2\n      swap1\n      tag_15\n      jump\t// in\n    tag_14:\n      tag_16\n      jump\t// in\n    tag_13:\n      mload(0x40)\n      tag_17\n      swap4\n      swap3\n      swap2\n      swap1\n      tag_18\n      jump\t// in\n    tag_17:\n      mload(0x40)\n      dup1\n      swap2\n      sub\n      swap1\n      return\n        /* \"contracts/contratoB.sol\":1965:2157  function transferMoney (uint amount, address payable _to) public {\r... */\n    tag_4:\n      callvalue\n      dup1\n      iszero\n      tag_19\n      jumpi\n      0x00\n      dup1\n      revert\n    tag_19:\n      pop\n      tag_20\n      0x04\n      dup1\n      calldatasize\n      sub\n      dup2\n      add\n      swap1\n      tag_21\n      swap2\n      swap1\n      tag_22\n      jump\t// in\n    tag_21:\n      tag_23\n      jump\t// in\n    tag_20:\n      stop\n        /* \"contracts/contratoB.sol\":1049:1137  function EstadoAlmacen () public view returns (uint256) {\r... */\n    tag_5:\n      callvalue\n      dup1\n      iszero\n      tag_24\n      jumpi\n      0x00\n      dup1\n      revert\n    tag_24:\n      pop\n      tag_25\n      tag_26\n      jump\t// in\n    tag_25:\n      mload(0x40)\n      tag_27\n      swap2\n      swap1\n      tag_28\n      jump\t// in\n    tag_27:\n      mload(0x40)\n      dup1\n      swap2\n      sub\n      swap1\n      return\n        /* \"contracts/contratoB.sol\":197:225  address payable public owner */\n    tag_6:\n      callvalue\n      dup1\n      iszero\n      tag_29\n      jumpi\n      0x00\n      dup1\n      revert\n    tag_29:\n      pop\n      tag_30\n      tag_31\n      jump\t// in\n    tag_30:\n      mload(0x40)\n      tag_32\n      swap2\n      swap1\n      tag_33\n      jump\t// in\n    tag_32:\n      mload(0x40)\n      dup1\n      swap2\n      sub\n      swap1\n      return\n        /* \"contracts/contratoB.sol\":932:1041  function Dataestable () public payable {\r... */\n    tag_7:\n      tag_34\n      tag_35\n      jump\t// in\n    tag_34:\n      stop\n        /* \"contracts/contratoB.sol\":1145:1588  function Invertir (string memory name, string memory wallet, uint inversion) external payable{\r... */\n    tag_11:\n        /* \"contracts/contratoB.sol\":1259:1268  msg.value */\n      callvalue\n        /* \"contracts/contratoB.sol\":1249:1255  boveda */\n      0x01\n      0x00\n        /* \"contracts/contratoB.sol\":1249:1268  boveda += msg.value */\n      dup3\n      dup3\n      sload\n      tag_37\n      swap2\n      swap1\n      tag_38\n      jump\t// in\n    tag_37:\n      swap3\n      pop\n      pop\n      dup2\n      swap1\n      sstore\n      pop\n        /* \"contracts/contratoB.sol\":1444:1467  DataInvest storage user */\n      0x00\n        /* \"contracts/contratoB.sol\":1470:1474  User */\n      0x03\n        /* \"contracts/contratoB.sol\":1470:1487  User [msg.sender] */\n      0x00\n        /* \"contracts/contratoB.sol\":1476:1486  msg.sender */\n      caller\n        /* \"contracts/contratoB.sol\":1470:1487  User [msg.sender] */\n      0xffffffffffffffffffffffffffffffffffffffff\n      and\n      0xffffffffffffffffffffffffffffffffffffffff\n      and\n      dup2\n      mstore\n      0x20\n      add\n      swap1\n      dup2\n      mstore\n      0x20\n      add\n      0x00\n      keccak256\n        /* \"contracts/contratoB.sol\":1444:1487  DataInvest storage user = User [msg.sender] */\n      swap1\n      pop\n        /* \"contracts/contratoB.sol\":1510:1514  name */\n      dup4\n        /* \"contracts/contratoB.sol\":1498:1502  user */\n      dup2\n        /* \"contracts/contratoB.sol\":1498:1507  user.name */\n      0x00\n      add\n        /* \"contracts/contratoB.sol\":1498:1514  user.name = name */\n      swap1\n      dup1\n      mload\n      swap1\n      0x20\n      add\n      swap1\n      tag_39\n      swap3\n      swap2\n      swap1\n      tag_40\n      jump\t// in\n    tag_39:\n      pop\n        /* \"contracts/contratoB.sol\":1538:1544  wallet */\n      dup3\n        /* \"contracts/contratoB.sol\":1524:1528  user */\n      dup2\n        /* \"contracts/contratoB.sol\":1524:1535  user.wallet */\n      0x01\n      add\n        /* \"contracts/contratoB.sol\":1524:1544  user.wallet = wallet */\n      swap1\n      dup1\n      mload\n      swap1\n      0x20\n      add\n      swap1\n      tag_41\n      swap3\n      swap2\n      swap1\n      tag_40\n      jump\t// in\n    tag_41:\n      pop\n        /* \"contracts/contratoB.sol\":1571:1580  inversion */\n      dup2\n        /* \"contracts/contratoB.sol\":1554:1558  user */\n      dup2\n        /* \"contracts/contratoB.sol\":1554:1568  user.inversion */\n      0x02\n      add\n        /* \"contracts/contratoB.sol\":1554:1580  user.inversion = inversion */\n      dup2\n      swap1\n      sstore\n      pop\n        /* \"contracts/contratoB.sol\":1145:1588  function Invertir (string memory name, string memory wallet, uint inversion) external payable{\r... */\n      pop\n      pop\n      pop\n      pop\n      jump\t// out\n        /* \"contracts/contratoB.sol\":1645:1849  function getUser (address addr ) external view returns (string memory, string memory, uint){\r... */\n    tag_16:\n        /* \"contracts/contratoB.sol\":1701:1714  string memory */\n      0x60\n        /* \"contracts/contratoB.sol\":1716:1729  string memory */\n      dup1\n        /* \"contracts/contratoB.sol\":1731:1735  uint */\n      0x00\n        /* \"contracts/contratoB.sol\":1747:1769  DataInvest memory user */\n      dup1\n        /* \"contracts/contratoB.sol\":1772:1776  User */\n      0x03\n        /* \"contracts/contratoB.sol\":1772:1782  User[addr] */\n      0x00\n        /* \"contracts/contratoB.sol\":1777:1781  addr */\n      dup7\n        /* \"contracts/contratoB.sol\":1772:1782  User[addr] */\n      0xffffffffffffffffffffffffffffffffffffffff\n      and\n      0xffffffffffffffffffffffffffffffffffffffff\n      and\n      dup2\n      mstore\n      0x20\n      add\n      swap1\n      dup2\n      mstore\n      0x20\n      add\n      0x00\n      keccak256\n        /* \"contracts/contratoB.sol\":1747:1782  DataInvest memory user = User[addr] */\n      mload(0x40)\n      dup1\n      0x60\n      add\n      0x40\n      mstore\n      swap1\n      dup2\n      0x00\n      dup3\n      add\n      dup1\n      sload\n      tag_43\n      swap1\n      tag_44\n      jump\t// in\n    tag_43:\n      dup1\n      0x1f\n      add\n      0x20\n      dup1\n      swap2\n      div\n      mul\n      0x20\n      add\n      mload(0x40)\n      swap1\n      dup2\n      add\n      0x40\n      mstore\n      dup1\n      swap3\n      swap2\n      swap1\n      dup2\n      dup2\n      mstore\n      0x20\n      add\n      dup3\n      dup1\n      sload\n      tag_45\n      swap1\n      tag_44\n      jump\t// in\n    tag_45:\n      dup1\n      iszero\n      tag_46\n      jumpi\n      dup1\n      0x1f\n      lt\n      tag_47\n      jumpi\n      0x0100\n      dup1\n      dup4\n      sload\n      div\n      mul\n      dup4\n      mstore\n      swap2\n      0x20\n      add\n      swap2\n      jump(tag_46)\n    tag_47:\n      dup3\n      add\n      swap2\n      swap1\n      0x00\n      mstore\n      keccak256(0x00, 0x20)\n      swap1\n    tag_48:\n      dup2\n      sload\n      dup2\n      mstore\n      swap1\n      0x01\n      add\n      swap1\n      0x20\n      add\n      dup1\n      dup4\n      gt\n      tag_48\n      jumpi\n      dup3\n      swap1\n      sub\n      0x1f\n      and\n      dup3\n      add\n      swap2\n    tag_46:\n      pop\n      pop\n      pop\n      pop\n      pop\n      dup2\n      mstore\n      0x20\n      add\n      0x01\n      dup3\n      add\n      dup1\n      sload\n      tag_49\n      swap1\n      tag_44\n      jump\t// in\n    tag_49:\n      dup1\n      0x1f\n      add\n      0x20\n      dup1\n      swap2\n      div\n      mul\n      0x20\n      add\n      mload(0x40)\n      swap1\n      dup2\n      add\n      0x40\n      mstore\n      dup1\n      swap3\n      swap2\n      swap1\n      dup2\n      dup2\n      mstore\n      0x20\n      add\n      dup3\n      dup1\n      sload\n      tag_50\n      swap1\n      tag_44\n      jump\t// in\n    tag_50:\n      dup1\n      iszero\n      tag_51\n      jumpi\n      dup1\n      0x1f\n      lt\n      tag_52\n      jumpi\n      0x0100\n      dup1\n      dup4\n      sload\n      div\n      mul\n      dup4\n      mstore\n      swap2\n      0x20\n      add\n      swap2\n      jump(tag_51)\n    tag_52:\n      dup3\n      add\n      swap2\n      swap1\n      0x00\n      mstore\n      keccak256(0x00, 0x20)\n      swap1\n    tag_53:\n      dup2\n      sload\n      dup2\n      mstore\n      swap1\n      0x01\n      add\n      swap1\n      0x20\n      add\n      dup1\n      dup4\n      gt\n      tag_53\n      jumpi\n      dup3\n      swap1\n      sub\n      0x1f\n      and\n      dup3\n      add\n      swap2\n    tag_51:\n      pop\n      pop\n      pop\n      pop\n      pop\n      dup2\n      mstore\n      0x20\n      add\n      0x02\n      dup3\n      add\n      sload\n      dup2\n      mstore\n      pop\n      pop\n      swap1\n      pop\n        /* \"contracts/contratoB.sol\":1801:1805  user */\n      dup1\n        /* \"contracts/contratoB.sol\":1801:1810  user.name */\n      0x00\n      add\n      mload\n        /* \"contracts/contratoB.sol\":1812:1816  user */\n      dup2\n        /* \"contracts/contratoB.sol\":1812:1823  user.wallet */\n      0x20\n      add\n      mload\n        /* \"contracts/contratoB.sol\":1825:1829  user */\n      dup3\n        /* \"contracts/contratoB.sol\":1825:1839  user.inversion */\n      0x40\n      add\n      mload\n        /* \"contracts/contratoB.sol\":1793:1840  return (user.name, user.wallet, user.inversion) */\n      swap4\n      pop\n      swap4\n      pop\n      swap4\n      pop\n      pop\n        /* \"contracts/contratoB.sol\":1645:1849  function getUser (address addr ) external view returns (string memory, string memory, uint){\r... */\n      swap2\n      swap4\n      swap1\n      swap3\n      pop\n      jump\t// out\n        /* \"contracts/contratoB.sol\":1965:2157  function transferMoney (uint amount, address payable _to) public {\r... */\n    tag_23:\n        /* \"contracts/contratoB.sol\":2074:2080  amount */\n      dup2\n        /* \"contracts/contratoB.sol\":2049:2070  address(this).balance */\n      selfbalance\n        /* \"contracts/contratoB.sol\":2049:2080  address(this).balance >= amount */\n      lt\n      iszero\n        /* \"contracts/contratoB.sol\":2041:2081  require(address(this).balance >= amount) */\n      tag_55\n      jumpi\n      0x00\n      dup1\n      revert\n    tag_55:\n        /* \"contracts/contratoB.sol\":2115:2116  0 */\n      0x00\n        /* \"contracts/contratoB.sol\":2100:2117  _to != address(0) */\n      0xffffffffffffffffffffffffffffffffffffffff\n      and\n        /* \"contracts/contratoB.sol\":2100:2103  _to */\n      dup2\n        /* \"contracts/contratoB.sol\":2100:2117  _to != address(0) */\n      0xffffffffffffffffffffffffffffffffffffffff\n      and\n      eq\n      iszero\n        /* \"contracts/contratoB.sol\":2092:2118  require(_to != address(0)) */\n      tag_56\n      jumpi\n      0x00\n      dup1\n      revert\n    tag_56:\n        /* \"contracts/contratoB.sol\":2129:2132  _to */\n      dup1\n        /* \"contracts/contratoB.sol\":2129:2141  _to.transfer */\n      0xffffffffffffffffffffffffffffffffffffffff\n      and\n        /* \"contracts/contratoB.sol\":2129:2149  _to.transfer(amount) */\n      0x08fc\n        /* \"contracts/contratoB.sol\":2142:2148  amount */\n      dup4\n        /* \"contracts/contratoB.sol\":2129:2149  _to.transfer(amount) */\n      swap1\n      dup2\n      iszero\n      mul\n      swap1\n      mload(0x40)\n      0x00\n      mload(0x40)\n      dup1\n      dup4\n      sub\n      dup2\n      dup6\n      dup9\n      dup9\n      call\n      swap4\n      pop\n      pop\n      pop\n      pop\n      iszero\n      dup1\n      iszero\n      tag_58\n      jumpi\n      returndatasize\n      0x00\n      dup1\n      returndatacopy\n      revert(0x00, returndatasize)\n    tag_58:\n      pop\n        /* \"contracts/contratoB.sol\":1965:2157  function transferMoney (uint amount, address payable _to) public {\r... */\n      pop\n      pop\n      jump\t// out\n        /* \"contracts/contratoB.sol\":1049:1137  function EstadoAlmacen () public view returns (uint256) {\r... */\n    tag_26:\n        /* \"contracts/contratoB.sol\":1096:1103  uint256 */\n      0x00\n        /* \"contracts/contratoB.sol\":1123:1129  boveda */\n      sload(0x01)\n        /* \"contracts/contratoB.sol\":1116:1129  return boveda */\n      swap1\n      pop\n        /* \"contracts/contratoB.sol\":1049:1137  function EstadoAlmacen () public view returns (uint256) {\r... */\n      swap1\n      jump\t// out\n        /* \"contracts/contratoB.sol\":197:225  address payable public owner */\n    tag_31:\n      0x00\n      dup1\n      sload\n      swap1\n      0x0100\n      exp\n      swap1\n      div\n      0xffffffffffffffffffffffffffffffffffffffff\n      and\n      dup2\n      jump\t// out\n        /* \"contracts/contratoB.sol\":932:1041  function Dataestable () public payable {\r... */\n    tag_35:\n      jump\t// out\n    tag_40:\n      dup3\n      dup1\n      sload\n      tag_61\n      swap1\n      tag_44\n      jump\t// in\n    tag_61:\n      swap1\n      0x00\n      mstore\n      keccak256(0x00, 0x20)\n      swap1\n      0x1f\n      add\n      0x20\n      swap1\n      div\n      dup2\n      add\n      swap3\n      dup3\n      tag_63\n      jumpi\n      0x00\n      dup6\n      sstore\n      jump(tag_62)\n    tag_63:\n      dup3\n      0x1f\n      lt\n      tag_64\n      jumpi\n      dup1\n      mload\n      not(0xff)\n      and\n      dup4\n      dup1\n      add\n      or\n      dup6\n      sstore\n      jump(tag_62)\n    tag_64:\n      dup3\n      dup1\n      add\n      0x01\n      add\n      dup6\n      sstore\n      dup3\n      iszero\n      tag_62\n      jumpi\n      swap2\n      dup3\n      add\n    tag_65:\n      dup3\n      dup2\n      gt\n      iszero\n      tag_66\n      jumpi\n      dup3\n      mload\n      dup3\n      sstore\n      swap2\n      0x20\n      add\n      swap2\n      swap1\n      0x01\n      add\n      swap1\n      jump(tag_65)\n    tag_66:\n    tag_62:\n      pop\n      swap1\n      pop\n      tag_67\n      swap2\n      swap1\n      tag_68\n      jump\t// in\n    tag_67:\n      pop\n      swap1\n      jump\t// out\n    tag_68:\n    tag_69:\n      dup1\n      dup3\n      gt\n      iszero\n      tag_70\n      jumpi\n      0x00\n      dup2\n      0x00\n      swap1\n      sstore\n      pop\n      0x01\n      add\n      jump(tag_69)\n    tag_70:\n      pop\n      swap1\n      jump\t// out\n        /* \"#utility.yul\":7:352   */\n    tag_72:\n        /* \"#utility.yul\":85:90   */\n      0x00\n        /* \"#utility.yul\":110:176   */\n      tag_74\n        /* \"#utility.yul\":126:175   */\n      tag_75\n        /* \"#utility.yul\":168:174   */\n      dup5\n        /* \"#utility.yul\":126:175   */\n      tag_76\n      jump\t// in\n    tag_75:\n        /* \"#utility.yul\":110:176   */\n      tag_77\n      jump\t// in\n    tag_74:\n        /* \"#utility.yul\":101:176   */\n      swap1\n      pop\n        /* \"#utility.yul\":199:205   */\n      dup3\n        /* \"#utility.yul\":192:197   */\n      dup2\n        /* \"#utility.yul\":185:206   */\n      mstore\n        /* \"#utility.yul\":237:241   */\n      0x20\n        /* \"#utility.yul\":230:235   */\n      dup2\n        /* \"#utility.yul\":226:242   */\n      add\n        /* \"#utility.yul\":275:278   */\n      dup5\n        /* \"#utility.yul\":266:272   */\n      dup5\n        /* \"#utility.yul\":261:264   */\n      dup5\n        /* \"#utility.yul\":257:273   */\n      add\n        /* \"#utility.yul\":254:279   */\n      gt\n        /* \"#utility.yul\":251:253   */\n      iszero\n      tag_78\n      jumpi\n        /* \"#utility.yul\":292:293   */\n      0x00\n        /* \"#utility.yul\":289:290   */\n      dup1\n        /* \"#utility.yul\":282:294   */\n      revert\n        /* \"#utility.yul\":251:253   */\n    tag_78:\n        /* \"#utility.yul\":305:346   */\n      tag_79\n        /* \"#utility.yul\":339:345   */\n      dup5\n        /* \"#utility.yul\":334:337   */\n      dup3\n        /* \"#utility.yul\":329:332   */\n      dup6\n        /* \"#utility.yul\":305:346   */\n      tag_80\n      jump\t// in\n    tag_79:\n        /* \"#utility.yul\":91:352   */\n      pop\n      swap4\n      swap3\n      pop\n      pop\n      pop\n      jump\t// out\n        /* \"#utility.yul\":358:497   */\n    tag_81:\n        /* \"#utility.yul\":404:409   */\n      0x00\n        /* \"#utility.yul\":442:448   */\n      dup2\n        /* \"#utility.yul\":429:449   */\n      calldataload\n        /* \"#utility.yul\":420:449   */\n      swap1\n      pop\n        /* \"#utility.yul\":458:491   */\n      tag_83\n        /* \"#utility.yul\":485:490   */\n      dup2\n        /* \"#utility.yul\":458:491   */\n      tag_84\n      jump\t// in\n    tag_83:\n        /* \"#utility.yul\":410:497   */\n      swap3\n      swap2\n      pop\n      pop\n      jump\t// out\n        /* \"#utility.yul\":503:658   */\n    tag_85:\n        /* \"#utility.yul\":557:562   */\n      0x00\n        /* \"#utility.yul\":595:601   */\n      dup2\n        /* \"#utility.yul\":582:602   */\n      calldataload\n        /* \"#utility.yul\":573:602   */\n      swap1\n      pop\n        /* \"#utility.yul\":611:652   */\n      tag_87\n        /* \"#utility.yul\":646:651   */\n      dup2\n        /* \"#utility.yul\":611:652   */\n      tag_88\n      jump\t// in\n    tag_87:\n        /* \"#utility.yul\":563:658   */\n      swap3\n      swap2\n      pop\n      pop\n      jump\t// out\n        /* \"#utility.yul\":678:951   */\n    tag_89:\n        /* \"#utility.yul\":734:739   */\n      0x00\n        /* \"#utility.yul\":783:786   */\n      dup3\n        /* \"#utility.yul\":776:780   */\n      0x1f\n        /* \"#utility.yul\":768:774   */\n      dup4\n        /* \"#utility.yul\":764:781   */\n      add\n        /* \"#utility.yul\":760:787   */\n      slt\n        /* \"#utility.yul\":750:752   */\n      tag_91\n      jumpi\n        /* \"#utility.yul\":801:802   */\n      0x00\n        /* \"#utility.yul\":798:799   */\n      dup1\n        /* \"#utility.yul\":791:803   */\n      revert\n        /* \"#utility.yul\":750:752   */\n    tag_91:\n        /* \"#utility.yul\":841:847   */\n      dup2\n        /* \"#utility.yul\":828:848   */\n      calldataload\n        /* \"#utility.yul\":866:945   */\n      tag_92\n        /* \"#utility.yul\":941:944   */\n      dup5\n        /* \"#utility.yul\":933:939   */\n      dup3\n        /* \"#utility.yul\":926:930   */\n      0x20\n        /* \"#utility.yul\":918:924   */\n      dup7\n        /* \"#utility.yul\":914:931   */\n      add\n        /* \"#utility.yul\":866:945   */\n      tag_72\n      jump\t// in\n    tag_92:\n        /* \"#utility.yul\":857:945   */\n      swap2\n      pop\n        /* \"#utility.yul\":740:951   */\n      pop\n      swap3\n      swap2\n      pop\n      pop\n      jump\t// out\n        /* \"#utility.yul\":957:1096   */\n    tag_93:\n        /* \"#utility.yul\":1003:1008   */\n      0x00\n        /* \"#utility.yul\":1041:1047   */\n      dup2\n        /* \"#utility.yul\":1028:1048   */\n      calldataload\n        /* \"#utility.yul\":1019:1048   */\n      swap1\n      pop\n        /* \"#utility.yul\":1057:1090   */\n      tag_95\n        /* \"#utility.yul\":1084:1089   */\n      dup2\n        /* \"#utility.yul\":1057:1090   */\n      tag_96\n      jump\t// in\n    tag_95:\n        /* \"#utility.yul\":1009:1096   */\n      swap3\n      swap2\n      pop\n      pop\n      jump\t// out\n        /* \"#utility.yul\":1102:1364   */\n    tag_15:\n        /* \"#utility.yul\":1161:1167   */\n      0x00\n        /* \"#utility.yul\":1210:1212   */\n      0x20\n        /* \"#utility.yul\":1198:1207   */\n      dup3\n        /* \"#utility.yul\":1189:1196   */\n      dup5\n        /* \"#utility.yul\":1185:1208   */\n      sub\n        /* \"#utility.yul\":1181:1213   */\n      slt\n        /* \"#utility.yul\":1178:1180   */\n      iszero\n      tag_98\n      jumpi\n        /* \"#utility.yul\":1226:1227   */\n      0x00\n        /* \"#utility.yul\":1223:1224   */\n      dup1\n        /* \"#utility.yul\":1216:1228   */\n      revert\n        /* \"#utility.yul\":1178:1180   */\n    tag_98:\n        /* \"#utility.yul\":1269:1270   */\n      0x00\n        /* \"#utility.yul\":1294:1347   */\n      tag_99\n        /* \"#utility.yul\":1339:1346   */\n      dup5\n        /* \"#utility.yul\":1330:1336   */\n      dup3\n        /* \"#utility.yul\":1319:1328   */\n      dup6\n        /* \"#utility.yul\":1315:1337   */\n      add\n        /* \"#utility.yul\":1294:1347   */\n      tag_81\n      jump\t// in\n    tag_99:\n        /* \"#utility.yul\":1284:1347   */\n      swap2\n      pop\n        /* \"#utility.yul\":1240:1357   */\n      pop\n        /* \"#utility.yul\":1168:1364   */\n      swap3\n      swap2\n      pop\n      pop\n      jump\t// out\n        /* \"#utility.yul\":1370:2148   */\n    tag_10:\n        /* \"#utility.yul\":1467:1473   */\n      0x00\n        /* \"#utility.yul\":1475:1481   */\n      dup1\n        /* \"#utility.yul\":1483:1489   */\n      0x00\n        /* \"#utility.yul\":1532:1534   */\n      0x60\n        /* \"#utility.yul\":1520:1529   */\n      dup5\n        /* \"#utility.yul\":1511:1518   */\n      dup7\n        /* \"#utility.yul\":1507:1530   */\n      sub\n        /* \"#utility.yul\":1503:1535   */\n      slt\n        /* \"#utility.yul\":1500:1502   */\n      iszero\n      tag_101\n      jumpi\n        /* \"#utility.yul\":1548:1549   */\n      0x00\n        /* \"#utility.yul\":1545:1546   */\n      dup1\n        /* \"#utility.yul\":1538:1550   */\n      revert\n        /* \"#utility.yul\":1500:1502   */\n    tag_101:\n        /* \"#utility.yul\":1619:1620   */\n      0x00\n        /* \"#utility.yul\":1608:1617   */\n      dup5\n        /* \"#utility.yul\":1604:1621   */\n      add\n        /* \"#utility.yul\":1591:1622   */\n      calldataload\n        /* \"#utility.yul\":1649:1667   */\n      0xffffffffffffffff\n        /* \"#utility.yul\":1641:1647   */\n      dup2\n        /* \"#utility.yul\":1638:1668   */\n      gt\n        /* \"#utility.yul\":1635:1637   */\n      iszero\n      tag_102\n      jumpi\n        /* \"#utility.yul\":1681:1682   */\n      0x00\n        /* \"#utility.yul\":1678:1679   */\n      dup1\n        /* \"#utility.yul\":1671:1683   */\n      revert\n        /* \"#utility.yul\":1635:1637   */\n    tag_102:\n        /* \"#utility.yul\":1709:1772   */\n      tag_103\n        /* \"#utility.yul\":1764:1771   */\n      dup7\n        /* \"#utility.yul\":1755:1761   */\n      dup3\n        /* \"#utility.yul\":1744:1753   */\n      dup8\n        /* \"#utility.yul\":1740:1762   */\n      add\n        /* \"#utility.yul\":1709:1772   */\n      tag_89\n      jump\t// in\n    tag_103:\n        /* \"#utility.yul\":1699:1772   */\n      swap4\n      pop\n        /* \"#utility.yul\":1562:1782   */\n      pop\n        /* \"#utility.yul\":1849:1851   */\n      0x20\n        /* \"#utility.yul\":1838:1847   */\n      dup5\n        /* \"#utility.yul\":1834:1852   */\n      add\n        /* \"#utility.yul\":1821:1853   */\n      calldataload\n        /* \"#utility.yul\":1880:1898   */\n      0xffffffffffffffff\n        /* \"#utility.yul\":1872:1878   */\n      dup2\n        /* \"#utility.yul\":1869:1899   */\n      gt\n        /* \"#utility.yul\":1866:1868   */\n      iszero\n      tag_104\n      jumpi\n        /* \"#utility.yul\":1912:1913   */\n      0x00\n        /* \"#utility.yul\":1909:1910   */\n      dup1\n        /* \"#utility.yul\":1902:1914   */\n      revert\n        /* \"#utility.yul\":1866:1868   */\n    tag_104:\n        /* \"#utility.yul\":1940:2003   */\n      tag_105\n        /* \"#utility.yul\":1995:2002   */\n      dup7\n        /* \"#utility.yul\":1986:1992   */\n      dup3\n        /* \"#utility.yul\":1975:1984   */\n      dup8\n        /* \"#utility.yul\":1971:1993   */\n      add\n        /* \"#utility.yul\":1940:2003   */\n      tag_89\n      jump\t// in\n    tag_105:\n        /* \"#utility.yul\":1930:2003   */\n      swap3\n      pop\n        /* \"#utility.yul\":1792:2013   */\n      pop\n        /* \"#utility.yul\":2052:2054   */\n      0x40\n        /* \"#utility.yul\":2078:2131   */\n      tag_106\n        /* \"#utility.yul\":2123:2130   */\n      dup7\n        /* \"#utility.yul\":2114:2120   */\n      dup3\n        /* \"#utility.yul\":2103:2112   */\n      dup8\n        /* \"#utility.yul\":2099:2121   */\n      add\n        /* \"#utility.yul\":2078:2131   */\n      tag_93\n      jump\t// in\n    tag_106:\n        /* \"#utility.yul\":2068:2131   */\n      swap2\n      pop\n        /* \"#utility.yul\":2023:2141   */\n      pop\n        /* \"#utility.yul\":1490:2148   */\n      swap3\n      pop\n      swap3\n      pop\n      swap3\n      jump\t// out\n        /* \"#utility.yul\":2154:2577   */\n    tag_22:\n        /* \"#utility.yul\":2230:2236   */\n      0x00\n        /* \"#utility.yul\":2238:2244   */\n      dup1\n        /* \"#utility.yul\":2287:2289   */\n      0x40\n        /* \"#utility.yul\":2275:2284   */\n      dup4\n        /* \"#utility.yul\":2266:2273   */\n      dup6\n        /* \"#utility.yul\":2262:2285   */\n      sub\n        /* \"#utility.yul\":2258:2290   */\n      slt\n        /* \"#utility.yul\":2255:2257   */\n      iszero\n      tag_108\n      jumpi\n        /* \"#utility.yul\":2303:2304   */\n      0x00\n        /* \"#utility.yul\":2300:2301   */\n      dup1\n        /* \"#utility.yul\":2293:2305   */\n      revert\n        /* \"#utility.yul\":2255:2257   */\n    tag_108:\n        /* \"#utility.yul\":2346:2347   */\n      0x00\n        /* \"#utility.yul\":2371:2424   */\n      tag_109\n        /* \"#utility.yul\":2416:2423   */\n      dup6\n        /* \"#utility.yul\":2407:2413   */\n      dup3\n        /* \"#utility.yul\":2396:2405   */\n      dup7\n        /* \"#utility.yul\":2392:2414   */\n      add\n        /* \"#utility.yul\":2371:2424   */\n      tag_93\n      jump\t// in\n    tag_109:\n        /* \"#utility.yul\":2361:2424   */\n      swap3\n      pop\n        /* \"#utility.yul\":2317:2434   */\n      pop\n        /* \"#utility.yul\":2473:2475   */\n      0x20\n        /* \"#utility.yul\":2499:2560   */\n      tag_110\n        /* \"#utility.yul\":2552:2559   */\n      dup6\n        /* \"#utility.yul\":2543:2549   */\n      dup3\n        /* \"#utility.yul\":2532:2541   */\n      dup7\n        /* \"#utility.yul\":2528:2550   */\n      add\n        /* \"#utility.yul\":2499:2560   */\n      tag_85\n      jump\t// in\n    tag_110:\n        /* \"#utility.yul\":2489:2560   */\n      swap2\n      pop\n        /* \"#utility.yul\":2444:2570   */\n      pop\n        /* \"#utility.yul\":2245:2577   */\n      swap3\n      pop\n      swap3\n      swap1\n      pop\n      jump\t// out\n        /* \"#utility.yul\":2583:2725   */\n    tag_111:\n        /* \"#utility.yul\":2686:2718   */\n      tag_113\n        /* \"#utility.yul\":2712:2717   */\n      dup2\n        /* \"#utility.yul\":2686:2718   */\n      tag_114\n      jump\t// in\n    tag_113:\n        /* \"#utility.yul\":2681:2684   */\n      dup3\n        /* \"#utility.yul\":2674:2719   */\n      mstore\n        /* \"#utility.yul\":2664:2725   */\n      pop\n      pop\n      jump\t// out\n        /* \"#utility.yul\":2731:3095   */\n    tag_115:\n        /* \"#utility.yul\":2819:2822   */\n      0x00\n        /* \"#utility.yul\":2847:2886   */\n      tag_117\n        /* \"#utility.yul\":2880:2885   */\n      dup3\n        /* \"#utility.yul\":2847:2886   */\n      tag_118\n      jump\t// in\n    tag_117:\n        /* \"#utility.yul\":2902:2973   */\n      tag_119\n        /* \"#utility.yul\":2966:2972   */\n      dup2\n        /* \"#utility.yul\":2961:2964   */\n      dup6\n        /* \"#utility.yul\":2902:2973   */\n      tag_120\n      jump\t// in\n    tag_119:\n        /* \"#utility.yul\":2895:2973   */\n      swap4\n      pop\n        /* \"#utility.yul\":2982:3034   */\n      tag_121\n        /* \"#utility.yul\":3027:3033   */\n      dup2\n        /* \"#utility.yul\":3022:3025   */\n      dup6\n        /* \"#utility.yul\":3015:3019   */\n      0x20\n        /* \"#utility.yul\":3008:3013   */\n      dup7\n        /* \"#utility.yul\":3004:3020   */\n      add\n        /* \"#utility.yul\":2982:3034   */\n      tag_122\n      jump\t// in\n    tag_121:\n        /* \"#utility.yul\":3059:3088   */\n      tag_123\n        /* \"#utility.yul\":3081:3087   */\n      dup2\n        /* \"#utility.yul\":3059:3088   */\n      tag_124\n      jump\t// in\n    tag_123:\n        /* \"#utility.yul\":3054:3057   */\n      dup5\n        /* \"#utility.yul\":3050:3089   */\n      add\n        /* \"#utility.yul\":3043:3089   */\n      swap2\n      pop\n        /* \"#utility.yul\":2823:3095   */\n      pop\n      swap3\n      swap2\n      pop\n      pop\n      jump\t// out\n        /* \"#utility.yul\":3101:3219   */\n    tag_125:\n        /* \"#utility.yul\":3188:3212   */\n      tag_127\n        /* \"#utility.yul\":3206:3211   */\n      dup2\n        /* \"#utility.yul\":3188:3212   */\n      tag_128\n      jump\t// in\n    tag_127:\n        /* \"#utility.yul\":3183:3186   */\n      dup3\n        /* \"#utility.yul\":3176:3213   */\n      mstore\n        /* \"#utility.yul\":3166:3219   */\n      pop\n      pop\n      jump\t// out\n        /* \"#utility.yul\":3225:3479   */\n    tag_33:\n        /* \"#utility.yul\":3334:3338   */\n      0x00\n        /* \"#utility.yul\":3372:3374   */\n      0x20\n        /* \"#utility.yul\":3361:3370   */\n      dup3\n        /* \"#utility.yul\":3357:3375   */\n      add\n        /* \"#utility.yul\":3349:3375   */\n      swap1\n      pop\n        /* \"#utility.yul\":3385:3472   */\n      tag_130\n        /* \"#utility.yul\":3469:3470   */\n      0x00\n        /* \"#utility.yul\":3458:3467   */\n      dup4\n        /* \"#utility.yul\":3454:3471   */\n      add\n        /* \"#utility.yul\":3445:3451   */\n      dup5\n        /* \"#utility.yul\":3385:3472   */\n      tag_111\n      jump\t// in\n    tag_130:\n        /* \"#utility.yul\":3339:3479   */\n      swap3\n      swap2\n      pop\n      pop\n      jump\t// out\n        /* \"#utility.yul\":3485:4109   */\n    tag_18:\n        /* \"#utility.yul\":3674:3678   */\n      0x00\n        /* \"#utility.yul\":3712:3714   */\n      0x60\n        /* \"#utility.yul\":3701:3710   */\n      dup3\n        /* \"#utility.yul\":3697:3715   */\n      add\n        /* \"#utility.yul\":3689:3715   */\n      swap1\n      pop\n        /* \"#utility.yul\":3761:3770   */\n      dup2\n        /* \"#utility.yul\":3755:3759   */\n      dup2\n        /* \"#utility.yul\":3751:3771   */\n      sub\n        /* \"#utility.yul\":3747:3748   */\n      0x00\n        /* \"#utility.yul\":3736:3745   */\n      dup4\n        /* \"#utility.yul\":3732:3749   */\n      add\n        /* \"#utility.yul\":3725:3772   */\n      mstore\n        /* \"#utility.yul\":3789:3867   */\n      tag_132\n        /* \"#utility.yul\":3862:3866   */\n      dup2\n        /* \"#utility.yul\":3853:3859   */\n      dup7\n        /* \"#utility.yul\":3789:3867   */\n      tag_115\n      jump\t// in\n    tag_132:\n        /* \"#utility.yul\":3781:3867   */\n      swap1\n      pop\n        /* \"#utility.yul\":3914:3923   */\n      dup2\n        /* \"#utility.yul\":3908:3912   */\n      dup2\n        /* \"#utility.yul\":3904:3924   */\n      sub\n        /* \"#utility.yul\":3899:3901   */\n      0x20\n        /* \"#utility.yul\":3888:3897   */\n      dup4\n        /* \"#utility.yul\":3884:3902   */\n      add\n        /* \"#utility.yul\":3877:3925   */\n      mstore\n        /* \"#utility.yul\":3942:4020   */\n      tag_133\n        /* \"#utility.yul\":4015:4019   */\n      dup2\n        /* \"#utility.yul\":4006:4012   */\n      dup6\n        /* \"#utility.yul\":3942:4020   */\n      tag_115\n      jump\t// in\n    tag_133:\n        /* \"#utility.yul\":3934:4020   */\n      swap1\n      pop\n        /* \"#utility.yul\":4030:4102   */\n      tag_134\n        /* \"#utility.yul\":4098:4100   */\n      0x40\n        /* \"#utility.yul\":4087:4096   */\n      dup4\n        /* \"#utility.yul\":4083:4101   */\n      add\n        /* \"#utility.yul\":4074:4080   */\n      dup5\n        /* \"#utility.yul\":4030:4102   */\n      tag_125\n      jump\t// in\n    tag_134:\n        /* \"#utility.yul\":3679:4109   */\n      swap5\n      swap4\n      pop\n      pop\n      pop\n      pop\n      jump\t// out\n        /* \"#utility.yul\":4115:4337   */\n    tag_28:\n        /* \"#utility.yul\":4208:4212   */\n      0x00\n        /* \"#utility.yul\":4246:4248   */\n      0x20\n        /* \"#utility.yul\":4235:4244   */\n      dup3\n        /* \"#utility.yul\":4231:4249   */\n      add\n        /* \"#utility.yul\":4223:4249   */\n      swap1\n      pop\n        /* \"#utility.yul\":4259:4330   */\n      tag_136\n        /* \"#utility.yul\":4327:4328   */\n      0x00\n        /* \"#utility.yul\":4316:4325   */\n      dup4\n        /* \"#utility.yul\":4312:4329   */\n      add\n        /* \"#utility.yul\":4303:4309   */\n      dup5\n        /* \"#utility.yul\":4259:4330   */\n      tag_125\n      jump\t// in\n    tag_136:\n        /* \"#utility.yul\":4213:4337   */\n      swap3\n      swap2\n      pop\n      pop\n      jump\t// out\n        /* \"#utility.yul\":4343:4472   */\n    tag_77:\n        /* \"#utility.yul\":4377:4383   */\n      0x00\n        /* \"#utility.yul\":4404:4424   */\n      tag_138\n      tag_139\n      jump\t// in\n    tag_138:\n        /* \"#utility.yul\":4394:4424   */\n      swap1\n      pop\n        /* \"#utility.yul\":4433:4466   */\n      tag_140\n        /* \"#utility.yul\":4461:4465   */\n      dup3\n        /* \"#utility.yul\":4453:4459   */\n      dup3\n        /* \"#utility.yul\":4433:4466   */\n      tag_141\n      jump\t// in\n    tag_140:\n        /* \"#utility.yul\":4384:4472   */\n      swap2\n      swap1\n      pop\n      jump\t// out\n        /* \"#utility.yul\":4478:4553   */\n    tag_139:\n        /* \"#utility.yul\":4511:4517   */\n      0x00\n        /* \"#utility.yul\":4544:4546   */\n      0x40\n        /* \"#utility.yul\":4538:4547   */\n      mload\n        /* \"#utility.yul\":4528:4547   */\n      swap1\n      pop\n        /* \"#utility.yul\":4518:4553   */\n      swap1\n      jump\t// out\n        /* \"#utility.yul\":4559:4867   */\n    tag_76:\n        /* \"#utility.yul\":4621:4625   */\n      0x00\n        /* \"#utility.yul\":4711:4729   */\n      0xffffffffffffffff\n        /* \"#utility.yul\":4703:4709   */\n      dup3\n        /* \"#utility.yul\":4700:4730   */\n      gt\n        /* \"#utility.yul\":4697:4699   */\n      iszero\n      tag_144\n      jumpi\n        /* \"#utility.yul\":4733:4751   */\n      tag_145\n      tag_146\n      jump\t// in\n    tag_145:\n        /* \"#utility.yul\":4697:4699   */\n    tag_144:\n        /* \"#utility.yul\":4771:4800   */\n      tag_147\n        /* \"#utility.yul\":4793:4799   */\n      dup3\n        /* \"#utility.yul\":4771:4800   */\n      tag_124\n      jump\t// in\n    tag_147:\n        /* \"#utility.yul\":4763:4800   */\n      swap1\n      pop\n        /* \"#utility.yul\":4855:4859   */\n      0x20\n        /* \"#utility.yul\":4849:4853   */\n      dup2\n        /* \"#utility.yul\":4845:4860   */\n      add\n        /* \"#utility.yul\":4837:4860   */\n      swap1\n      pop\n        /* \"#utility.yul\":4626:4867   */\n      swap2\n      swap1\n      pop\n      jump\t// out\n        /* \"#utility.yul\":4873:4972   */\n    tag_118:\n        /* \"#utility.yul\":4925:4931   */\n      0x00\n        /* \"#utility.yul\":4959:4964   */\n      dup2\n        /* \"#utility.yul\":4953:4965   */\n      mload\n        /* \"#utility.yul\":4943:4965   */\n      swap1\n      pop\n        /* \"#utility.yul\":4932:4972   */\n      swap2\n      swap1\n      pop\n      jump\t// out\n        /* \"#utility.yul\":4978:5147   */\n    tag_120:\n        /* \"#utility.yul\":5062:5073   */\n      0x00\n        /* \"#utility.yul\":5096:5102   */\n      dup3\n        /* \"#utility.yul\":5091:5094   */\n      dup3\n        /* \"#utility.yul\":5084:5103   */\n      mstore\n        /* \"#utility.yul\":5136:5140   */\n      0x20\n        /* \"#utility.yul\":5131:5134   */\n      dup3\n        /* \"#utility.yul\":5127:5141   */\n      add\n        /* \"#utility.yul\":5112:5141   */\n      swap1\n      pop\n        /* \"#utility.yul\":5074:5147   */\n      swap3\n      swap2\n      pop\n      pop\n      jump\t// out\n        /* \"#utility.yul\":5153:5458   */\n    tag_38:\n        /* \"#utility.yul\":5193:5196   */\n      0x00\n        /* \"#utility.yul\":5212:5232   */\n      tag_151\n        /* \"#utility.yul\":5230:5231   */\n      dup3\n        /* \"#utility.yul\":5212:5232   */\n      tag_128\n      jump\t// in\n    tag_151:\n        /* \"#utility.yul\":5207:5232   */\n      swap2\n      pop\n        /* \"#utility.yul\":5246:5266   */\n      tag_152\n        /* \"#utility.yul\":5264:5265   */\n      dup4\n        /* \"#utility.yul\":5246:5266   */\n      tag_128\n      jump\t// in\n    tag_152:\n        /* \"#utility.yul\":5241:5266   */\n      swap3\n      pop\n        /* \"#utility.yul\":5400:5401   */\n      dup3\n        /* \"#utility.yul\":5332:5398   */\n      0xffffffffffffffffffffffffffffffffffffffffffffffffffffffffffffffff\n        /* \"#utility.yul\":5328:5402   */\n      sub\n        /* \"#utility.yul\":5325:5326   */\n      dup3\n        /* \"#utility.yul\":5322:5403   */\n      gt\n        /* \"#utility.yul\":5319:5321   */\n      iszero\n      tag_153\n      jumpi\n        /* \"#utility.yul\":5406:5424   */\n      tag_154\n      tag_155\n      jump\t// in\n    tag_154:\n        /* \"#utility.yul\":5319:5321   */\n    tag_153:\n        /* \"#utility.yul\":5450:5451   */\n      dup3\n        /* \"#utility.yul\":5447:5448   */\n      dup3\n        /* \"#utility.yul\":5443:5452   */\n      add\n        /* \"#utility.yul\":5436:5452   */\n      swap1\n      pop\n        /* \"#utility.yul\":5197:5458   */\n      swap3\n      swap2\n      pop\n      pop\n      jump\t// out\n        /* \"#utility.yul\":5464:5560   */\n    tag_156:\n        /* \"#utility.yul\":5501:5508   */\n      0x00\n        /* \"#utility.yul\":5530:5554   */\n      tag_158\n        /* \"#utility.yul\":5548:5553   */\n      dup3\n        /* \"#utility.yul\":5530:5554   */\n      tag_159\n      jump\t// in\n    tag_158:\n        /* \"#utility.yul\":5519:5554   */\n      swap1\n      pop\n        /* \"#utility.yul\":5509:5560   */\n      swap2\n      swap1\n      pop\n      jump\t// out\n        /* \"#utility.yul\":5566:5670   */\n    tag_114:\n        /* \"#utility.yul\":5611:5618   */\n      0x00\n        /* \"#utility.yul\":5640:5664   */\n      tag_161\n        /* \"#utility.yul\":5658:5663   */\n      dup3\n        /* \"#utility.yul\":5640:5664   */\n      tag_159\n      jump\t// in\n    tag_161:\n        /* \"#utility.yul\":5629:5664   */\n      swap1\n      pop\n        /* \"#utility.yul\":5619:5670   */\n      swap2\n      swap1\n      pop\n      jump\t// out\n        /* \"#utility.yul\":5676:5802   */\n    tag_159:\n        /* \"#utility.yul\":5713:5720   */\n      0x00\n        /* \"#utility.yul\":5753:5795   */\n      0xffffffffffffffffffffffffffffffffffffffff\n        /* \"#utility.yul\":5746:5751   */\n      dup3\n        /* \"#utility.yul\":5742:5796   */\n      and\n        /* \"#utility.yul\":5731:5796   */\n      swap1\n      pop\n        /* \"#utility.yul\":5721:5802   */\n      swap2\n      swap1\n      pop\n      jump\t// out\n        /* \"#utility.yul\":5808:5885   */\n    tag_128:\n        /* \"#utility.yul\":5845:5852   */\n      0x00\n        /* \"#utility.yul\":5874:5879   */\n      dup2\n        /* \"#utility.yul\":5863:5879   */\n      swap1\n      pop\n        /* \"#utility.yul\":5853:5885   */\n      swap2\n      swap1\n      pop\n      jump\t// out\n        /* \"#utility.yul\":5891:6045   */\n    tag_80:\n        /* \"#utility.yul\":5975:5981   */\n      dup3\n        /* \"#utility.yul\":5970:5973   */\n      dup2\n        /* \"#utility.yul\":5965:5968   */\n      dup4\n        /* \"#utility.yul\":5952:5982   */\n      calldatacopy\n        /* \"#utility.yul\":6037:6038   */\n      0x00\n        /* \"#utility.yul\":6028:6034   */\n      dup4\n        /* \"#utility.yul\":6023:6026   */\n      dup4\n        /* \"#utility.yul\":6019:6035   */\n      add\n        /* \"#utility.yul\":6012:6039   */\n      mstore\n        /* \"#utility.yul\":5942:6045   */\n      pop\n      pop\n      pop\n      jump\t// out\n        /* \"#utility.yul\":6051:6358   */\n    tag_122:\n        /* \"#utility.yul\":6119:6120   */\n      0x00\n        /* \"#utility.yul\":6129:6242   */\n    tag_166:\n        /* \"#utility.yul\":6143:6149   */\n      dup4\n        /* \"#utility.yul\":6140:6141   */\n      dup2\n        /* \"#utility.yul\":6137:6150   */\n      lt\n        /* \"#utility.yul\":6129:6242   */\n      iszero\n      tag_168\n      jumpi\n        /* \"#utility.yul\":6228:6229   */\n      dup1\n        /* \"#utility.yul\":6223:6226   */\n      dup3\n        /* \"#utility.yul\":6219:6230   */\n      add\n        /* \"#utility.yul\":6213:6231   */\n      mload\n        /* \"#utility.yul\":6209:6210   */\n      dup2\n        /* \"#utility.yul\":6204:6207   */\n      dup5\n        /* \"#utility.yul\":6200:6211   */\n      add\n        /* \"#utility.yul\":6193:6232   */\n      mstore\n        /* \"#utility.yul\":6165:6167   */\n      0x20\n        /* \"#utility.yul\":6162:6163   */\n      dup2\n        /* \"#utility.yul\":6158:6168   */\n      add\n        /* \"#utility.yul\":6153:6168   */\n      swap1\n      pop\n        /* \"#utility.yul\":6129:6242   */\n      jump(tag_166)\n    tag_168:\n        /* \"#utility.yul\":6260:6266   */\n      dup4\n        /* \"#utility.yul\":6257:6258   */\n      dup2\n        /* \"#utility.yul\":6254:6267   */\n      gt\n        /* \"#utility.yul\":6251:6253   */\n      iszero\n      tag_169\n      jumpi\n        /* \"#utility.yul\":6340:6341   */\n      0x00\n        /* \"#utility.yul\":6331:6337   */\n      dup5\n        /* \"#utility.yul\":6326:6329   */\n      dup5\n        /* \"#utility.yul\":6322:6338   */\n      add\n        /* \"#utility.yul\":6315:6342   */\n      mstore\n        /* \"#utility.yul\":6251:6253   */\n    tag_169:\n        /* \"#utility.yul\":6100:6358   */\n      pop\n      pop\n      pop\n      pop\n      jump\t// out\n        /* \"#utility.yul\":6364:6684   */\n    tag_44:\n        /* \"#utility.yul\":6408:6414   */\n      0x00\n        /* \"#utility.yul\":6445:6446   */\n      0x02\n        /* \"#utility.yul\":6439:6443   */\n      dup3\n        /* \"#utility.yul\":6435:6447   */\n      div\n        /* \"#utility.yul\":6425:6447   */\n      swap1\n      pop\n        /* \"#utility.yul\":6492:6493   */\n      0x01\n        /* \"#utility.yul\":6486:6490   */\n      dup3\n        /* \"#utility.yul\":6482:6494   */\n      and\n        /* \"#utility.yul\":6513:6531   */\n      dup1\n        /* \"#utility.yul\":6503:6505   */\n      tag_171\n      jumpi\n        /* \"#utility.yul\":6569:6573   */\n      0x7f\n        /* \"#utility.yul\":6561:6567   */\n      dup3\n        /* \"#utility.yul\":6557:6574   */\n      and\n        /* \"#utility.yul\":6547:6574   */\n      swap2\n      pop\n        /* \"#utility.yul\":6503:6505   */\n    tag_171:\n        /* \"#utility.yul\":6631:6633   */\n      0x20\n        /* \"#utility.yul\":6623:6629   */\n      dup3\n        /* \"#utility.yul\":6620:6634   */\n      lt\n        /* \"#utility.yul\":6600:6618   */\n      dup2\n        /* \"#utility.yul\":6597:6635   */\n      eq\n        /* \"#utility.yul\":6594:6596   */\n      iszero\n      tag_172\n      jumpi\n        /* \"#utility.yul\":6650:6668   */\n      tag_173\n      tag_174\n      jump\t// in\n    tag_173:\n        /* \"#utility.yul\":6594:6596   */\n    tag_172:\n        /* \"#utility.yul\":6415:6684   */\n      pop\n      swap2\n      swap1\n      pop\n      jump\t// out\n        /* \"#utility.yul\":6690:6971   */\n    tag_141:\n        /* \"#utility.yul\":6773:6800   */\n      tag_176\n        /* \"#utility.yul\":6795:6799   */\n      dup3\n        /* \"#utility.yul\":6773:6800   */\n      tag_124\n      jump\t// in\n    tag_176:\n        /* \"#utility.yul\":6765:6771   */\n      dup2\n        /* \"#utility.yul\":6761:6801   */\n      add\n        /* \"#utility.yul\":6903:6909   */\n      dup2\n        /* \"#utility.yul\":6891:6901   */\n      dup2\n        /* \"#utility.yul\":6888:6910   */\n      lt\n        /* \"#utility.yul\":6867:6885   */\n      0xffffffffffffffff\n        /* \"#utility.yul\":6855:6865   */\n      dup3\n        /* \"#utility.yul\":6852:6886   */\n      gt\n        /* \"#utility.yul\":6849:6911   */\n      or\n        /* \"#utility.yul\":6846:6848   */\n      iszero\n      tag_177\n      jumpi\n        /* \"#utility.yul\":6914:6932   */\n      tag_178\n      tag_146\n      jump\t// in\n    tag_178:\n        /* \"#utility.yul\":6846:6848   */\n    tag_177:\n        /* \"#utility.yul\":6954:6964   */\n      dup1\n        /* \"#utility.yul\":6950:6952   */\n      0x40\n        /* \"#utility.yul\":6943:6965   */\n      mstore\n        /* \"#utility.yul\":6733:6971   */\n      pop\n      pop\n      pop\n      jump\t// out\n        /* \"#utility.yul\":6977:7157   */\n    tag_155:\n        /* \"#utility.yul\":7025:7102   */\n      0x4e487b7100000000000000000000000000000000000000000000000000000000\n        /* \"#utility.yul\":7022:7023   */\n      0x00\n        /* \"#utility.yul\":7015:7103   */\n      mstore\n        /* \"#utility.yul\":7122:7126   */\n      0x11\n        /* \"#utility.yul\":7119:7120   */\n      0x04\n        /* \"#utility.yul\":7112:7127   */\n      mstore\n        /* \"#utility.yul\":7146:7150   */\n      0x24\n        /* \"#utility.yul\":7143:7144   */\n      0x00\n        /* \"#utility.yul\":7136:7151   */\n      revert\n        /* \"#utility.yul\":7163:7343   */\n    tag_174:\n        /* \"#utility.yul\":7211:7288   */\n      0x4e487b7100000000000000000000000000000000000000000000000000000000\n        /* \"#utility.yul\":7208:7209   */\n      0x00\n        /* \"#utility.yul\":7201:7289   */\n      mstore\n        /* \"#utility.yul\":7308:7312   */\n      0x22\n        /* \"#utility.yul\":7305:7306   */\n      0x04\n        /* \"#utility.yul\":7298:7313   */\n      mstore\n        /* \"#utility.yul\":7332:7336   */\n      0x24\n        /* \"#utility.yul\":7329:7330   */\n      0x00\n        /* \"#utility.yul\":7322:7337   */\n      revert\n        /* \"#utility.yul\":7349:7529   */\n    tag_146:\n        /* \"#utility.yul\":7397:7474   */\n      0x4e487b7100000000000000000000000000000000000000000000000000000000\n        /* \"#utility.yul\":7394:7395   */\n      0x00\n        /* \"#utility.yul\":7387:7475   */\n      mstore\n        /* \"#utility.yul\":7494:7498   */\n      0x41\n        /* \"#utility.yul\":7491:7492   */\n      0x04\n        /* \"#utility.yul\":7484:7499   */\n      mstore\n        /* \"#utility.yul\":7518:7522   */\n      0x24\n        /* \"#utility.yul\":7515:7516   */\n      0x00\n        /* \"#utility.yul\":7508:7523   */\n      revert\n        /* \"#utility.yul\":7535:7637   */\n    tag_124:\n        /* \"#utility.yul\":7576:7582   */\n      0x00\n        /* \"#utility.yul\":7627:7629   */\n      0x1f\n        /* \"#utility.yul\":7623:7630   */\n      not\n        /* \"#utility.yul\":7618:7620   */\n      0x1f\n        /* \"#utility.yul\":7611:7616   */\n      dup4\n        /* \"#utility.yul\":7607:7621   */\n      add\n        /* \"#utility.yul\":7603:7631   */\n      and\n        /* \"#utility.yul\":7593:7631   */\n      swap1\n      pop\n        /* \"#utility.yul\":7583:7637   */\n      swap2\n      swap1\n      pop\n      jump\t// out\n        /* \"#utility.yul\":7643:7765   */\n    tag_84:\n        /* \"#utility.yul\":7716:7740   */\n      tag_184\n        /* \"#utility.yul\":7734:7739   */\n      dup2\n        /* \"#utility.yul\":7716:7740   */\n      tag_156\n      jump\t// in\n    tag_184:\n        /* \"#utility.yul\":7709:7714   */\n      dup2\n        /* \"#utility.yul\":7706:7741   */\n      eq\n        /* \"#utility.yul\":7696:7698   */\n      tag_185\n      jumpi\n        /* \"#utility.yul\":7755:7756   */\n      0x00\n        /* \"#utility.yul\":7752:7753   */\n      dup1\n        /* \"#utility.yul\":7745:7757   */\n      revert\n        /* \"#utility.yul\":7696:7698   */\n    tag_185:\n        /* \"#utility.yul\":7686:7765   */\n      pop\n      jump\t// out\n        /* \"#utility.yul\":7771:7909   */\n    tag_88:\n        /* \"#utility.yul\":7852:7884   */\n      tag_187\n        /* \"#utility.yul\":7878:7883   */\n      dup2\n        /* \"#utility.yul\":7852:7884   */\n      tag_114\n      jump\t// in\n    tag_187:\n        /* \"#utility.yul\":7845:7850   */\n      dup2\n        /* \"#utility.yul\":7842:7885   */\n      eq\n        /* \"#utility.yul\":7832:7834   */\n      tag_188\n      jumpi\n        /* \"#utility.yul\":7899:7900   */\n      0x00\n        /* \"#utility.yul\":7896:7897   */\n      dup1\n        /* \"#utility.yul\":7889:7901   */\n      revert\n        /* \"#utility.yul\":7832:7834   */\n    tag_188:\n        /* \"#utility.yul\":7822:7909   */\n      pop\n      jump\t// out\n        /* \"#utility.yul\":7915:8037   */\n    tag_96:\n        /* \"#utility.yul\":7988:8012   */\n      tag_190\n        /* \"#utility.yul\":8006:8011   */\n      dup2\n        /* \"#utility.yul\":7988:8012   */\n      tag_128\n      jump\t// in\n    tag_190:\n        /* \"#utility.yul\":7981:7986   */\n      dup2\n        /* \"#utility.yul\":7978:8013   */\n      eq\n        /* \"#utility.yul\":7968:7970   */\n      tag_191\n      jumpi\n        /* \"#utility.yul\":8027:8028   */\n      0x00\n        /* \"#utility.yul\":8024:8025   */\n      dup1\n        /* \"#utility.yul\":8017:8029   */\n      revert\n        /* \"#utility.yul\":7968:7970   */\n    tag_191:\n        /* \"#utility.yul\":7958:8037   */\n      pop\n      jump\t// out\n\n    auxdata: 0xa2646970667358221220e0d488a51ff0e6a1b4b18fb004cbfe2428ad720b9b5018e67073e4e19d50f14e64736f6c63430008040033\n}\n",
				"bytecode": {
					"linkReferences": {},
					"object": "6080604052671bc16d674ec8000060025534801561001c57600080fd5b50610a0d8061002c6000396000f3fe6080604052600436106100545760003560e01c8062895d4a146100595780636f77926b14610075578063792889aa146100b45780638098831b146100dd5780638da5cb5b14610108578063a2f4501414610133575b600080fd5b610073600480360381019061006e91906105ac565b61013d565b005b34801561008157600080fd5b5061009c60048036038101906100979190610583565b6101da565b6040516100ab939291906106d9565b60405180910390f35b3480156100c057600080fd5b506100db60048036038101906100d6919061062b565b610377565b005b3480156100e957600080fd5b506100f2610409565b6040516100ff919061071e565b60405180910390f35b34801561011457600080fd5b5061011d610413565b60405161012a91906106be565b60405180910390f35b61013b610437565b005b346001600082825461014f91906107ab565b925050819055506000600360003373ffffffffffffffffffffffffffffffffffffffff1673ffffffffffffffffffffffffffffffffffffffff1681526020019081526020016000209050838160000190805190602001906101b1929190610439565b50828160010190805190602001906101ca929190610439565b5081816002018190555050505050565b606080600080600360008673ffffffffffffffffffffffffffffffffffffffff1673ffffffffffffffffffffffffffffffffffffffff16815260200190815260200160002060405180606001604052908160008201805461023a90610891565b80601f016020809104026020016040519081016040528092919081815260200182805461026690610891565b80156102b35780601f10610288576101008083540402835291602001916102b3565b820191906000526020600020905b81548152906001019060200180831161029657829003601f168201915b505050505081526020016001820180546102cc90610891565b80601f01602080910402602001604051908101604052809291908181526020018280546102f890610891565b80156103455780601f1061031a57610100808354040283529160200191610345565b820191906000526020600020905b81548152906001019060200180831161032857829003601f168201915b505050505081526020016002820154815250509050806000015181602001518260400151935093509350509193909250565b8147101561038457600080fd5b600073ffffffffffffffffffffffffffffffffffffffff168173ffffffffffffffffffffffffffffffffffffffff1614156103be57600080fd5b8073ffffffffffffffffffffffffffffffffffffffff166108fc839081150290604051600060405180830381858888f19350505050158015610404573d6000803e3d6000fd5b505050565b6000600154905090565b60008054906101000a900473ffffffffffffffffffffffffffffffffffffffff1681565b565b82805461044590610891565b90600052602060002090601f01602090048101928261046757600085556104ae565b82601f1061048057805160ff19168380011785556104ae565b828001600101855582156104ae579182015b828111156104ad578251825591602001919060010190610492565b5b5090506104bb91906104bf565b5090565b5b808211156104d85760008160009055506001016104c0565b5090565b60006104ef6104ea8461075e565b610739565b90508281526020810184848401111561050757600080fd5b61051284828561084f565b509392505050565b60008135905061052981610992565b92915050565b60008135905061053e816109a9565b92915050565b600082601f83011261055557600080fd5b81356105658482602086016104dc565b91505092915050565b60008135905061057d816109c0565b92915050565b60006020828403121561059557600080fd5b60006105a38482850161051a565b91505092915050565b6000806000606084860312156105c157600080fd5b600084013567ffffffffffffffff8111156105db57600080fd5b6105e786828701610544565b935050602084013567ffffffffffffffff81111561060457600080fd5b61061086828701610544565b92505060406106218682870161056e565b9150509250925092565b6000806040838503121561063e57600080fd5b600061064c8582860161056e565b925050602061065d8582860161052f565b9150509250929050565b61067081610813565b82525050565b60006106818261078f565b61068b818561079a565b935061069b81856020860161085e565b6106a481610981565b840191505092915050565b6106b881610845565b82525050565b60006020820190506106d36000830184610667565b92915050565b600060608201905081810360008301526106f38186610676565b905081810360208301526107078185610676565b905061071660408301846106af565b949350505050565b600060208201905061073360008301846106af565b92915050565b6000610743610754565b905061074f82826108c3565b919050565b6000604051905090565b600067ffffffffffffffff82111561077957610778610952565b5b61078282610981565b9050602081019050919050565b600081519050919050565b600082825260208201905092915050565b60006107b682610845565b91506107c183610845565b9250827fffffffffffffffffffffffffffffffffffffffffffffffffffffffffffffffff038211156107f6576107f56108f4565b5b828201905092915050565b600061080c82610825565b9050919050565b600061081e82610825565b9050919050565b600073ffffffffffffffffffffffffffffffffffffffff82169050919050565b6000819050919050565b82818337600083830152505050565b60005b8381101561087c578082015181840152602081019050610861565b8381111561088b576000848401525b50505050565b600060028204905060018216806108a957607f821691505b602082108114156108bd576108bc610923565b5b50919050565b6108cc82610981565b810181811067ffffffffffffffff821117156108eb576108ea610952565b5b80604052505050565b7f4e487b7100000000000000000000000000000000000000000000000000000000600052601160045260246000fd5b7f4e487b7100000000000000000000000000000000000000000000000000000000600052602260045260246000fd5b7f4e487b7100000000000000000000000000000000000000000000000000000000600052604160045260246000fd5b6000601f19601f8301169050919050565b61099b81610801565b81146109a657600080fd5b50565b6109b281610813565b81146109bd57600080fd5b50565b6109c981610845565b81146109d457600080fd5b5056fea2646970667358221220e0d488a51ff0e6a1b4b18fb004cbfe2428ad720b9b5018e67073e4e19d50f14e64736f6c63430008040033",
					"opcodes": "PUSH1 0x80 PUSH1 0x40 MSTORE PUSH8 0x1BC16D674EC80000 PUSH1 0x2 SSTORE CALLVALUE DUP1 ISZERO PUSH2 0x1C JUMPI PUSH1 0x0 DUP1 REVERT JUMPDEST POP PUSH2 0xA0D DUP1 PUSH2 0x2C PUSH1 0x0 CODECOPY PUSH1 0x0 RETURN INVALID PUSH1 0x80 PUSH1 0x40 MSTORE PUSH1 0x4 CALLDATASIZE LT PUSH2 0x54 JUMPI PUSH1 0x0 CALLDATALOAD PUSH1 0xE0 SHR DUP1 PUSH3 0x895D4A EQ PUSH2 0x59 JUMPI DUP1 PUSH4 0x6F77926B EQ PUSH2 0x75 JUMPI DUP1 PUSH4 0x792889AA EQ PUSH2 0xB4 JUMPI DUP1 PUSH4 0x8098831B EQ PUSH2 0xDD JUMPI DUP1 PUSH4 0x8DA5CB5B EQ PUSH2 0x108 JUMPI DUP1 PUSH4 0xA2F45014 EQ PUSH2 0x133 JUMPI JUMPDEST PUSH1 0x0 DUP1 REVERT JUMPDEST PUSH2 0x73 PUSH1 0x4 DUP1 CALLDATASIZE SUB DUP2 ADD SWAP1 PUSH2 0x6E SWAP2 SWAP1 PUSH2 0x5AC JUMP JUMPDEST PUSH2 0x13D JUMP JUMPDEST STOP JUMPDEST CALLVALUE DUP1 ISZERO PUSH2 0x81 JUMPI PUSH1 0x0 DUP1 REVERT JUMPDEST POP PUSH2 0x9C PUSH1 0x4 DUP1 CALLDATASIZE SUB DUP2 ADD SWAP1 PUSH2 0x97 SWAP2 SWAP1 PUSH2 0x583 JUMP JUMPDEST PUSH2 0x1DA JUMP JUMPDEST PUSH1 0x40 MLOAD PUSH2 0xAB SWAP4 SWAP3 SWAP2 SWAP1 PUSH2 0x6D9 JUMP JUMPDEST PUSH1 0x40 MLOAD DUP1 SWAP2 SUB SWAP1 RETURN JUMPDEST CALLVALUE DUP1 ISZERO PUSH2 0xC0 JUMPI PUSH1 0x0 DUP1 REVERT JUMPDEST POP PUSH2 0xDB PUSH1 0x4 DUP1 CALLDATASIZE SUB DUP2 ADD SWAP1 PUSH2 0xD6 SWAP2 SWAP1 PUSH2 0x62B JUMP JUMPDEST PUSH2 0x377 JUMP JUMPDEST STOP JUMPDEST CALLVALUE DUP1 ISZERO PUSH2 0xE9 JUMPI PUSH1 0x0 DUP1 REVERT JUMPDEST POP PUSH2 0xF2 PUSH2 0x409 JUMP JUMPDEST PUSH1 0x40 MLOAD PUSH2 0xFF SWAP2 SWAP1 PUSH2 0x71E JUMP JUMPDEST PUSH1 0x40 MLOAD DUP1 SWAP2 SUB SWAP1 RETURN JUMPDEST CALLVALUE DUP1 ISZERO PUSH2 0x114 JUMPI PUSH1 0x0 DUP1 REVERT JUMPDEST POP PUSH2 0x11D PUSH2 0x413 JUMP JUMPDEST PUSH1 0x40 MLOAD PUSH2 0x12A SWAP2 SWAP1 PUSH2 0x6BE JUMP JUMPDEST PUSH1 0x40 MLOAD DUP1 SWAP2 SUB SWAP1 RETURN JUMPDEST PUSH2 0x13B PUSH2 0x437 JUMP JUMPDEST STOP JUMPDEST CALLVALUE PUSH1 0x1 PUSH1 0x0 DUP3 DUP3 SLOAD PUSH2 0x14F SWAP2 SWAP1 PUSH2 0x7AB JUMP JUMPDEST SWAP3 POP POP DUP2 SWAP1 SSTORE POP PUSH1 0x0 PUSH1 0x3 PUSH1 0x0 CALLER PUSH20 0xFFFFFFFFFFFFFFFFFFFFFFFFFFFFFFFFFFFFFFFF AND PUSH20 0xFFFFFFFFFFFFFFFFFFFFFFFFFFFFFFFFFFFFFFFF AND DUP2 MSTORE PUSH1 0x20 ADD SWAP1 DUP2 MSTORE PUSH1 0x20 ADD PUSH1 0x0 KECCAK256 SWAP1 POP DUP4 DUP2 PUSH1 0x0 ADD SWAP1 DUP1 MLOAD SWAP1 PUSH1 0x20 ADD SWAP1 PUSH2 0x1B1 SWAP3 SWAP2 SWAP1 PUSH2 0x439 JUMP JUMPDEST POP DUP3 DUP2 PUSH1 0x1 ADD SWAP1 DUP1 MLOAD SWAP1 PUSH1 0x20 ADD SWAP1 PUSH2 0x1CA SWAP3 SWAP2 SWAP1 PUSH2 0x439 JUMP JUMPDEST POP DUP2 DUP2 PUSH1 0x2 ADD DUP2 SWAP1 SSTORE POP POP POP POP POP JUMP JUMPDEST PUSH1 0x60 DUP1 PUSH1 0x0 DUP1 PUSH1 0x3 PUSH1 0x0 DUP7 PUSH20 0xFFFFFFFFFFFFFFFFFFFFFFFFFFFFFFFFFFFFFFFF AND PUSH20 0xFFFFFFFFFFFFFFFFFFFFFFFFFFFFFFFFFFFFFFFF AND DUP2 MSTORE PUSH1 0x20 ADD SWAP1 DUP2 MSTORE PUSH1 0x20 ADD PUSH1 0x0 KECCAK256 PUSH1 0x40 MLOAD DUP1 PUSH1 0x60 ADD PUSH1 0x40 MSTORE SWAP1 DUP2 PUSH1 0x0 DUP3 ADD DUP1 SLOAD PUSH2 0x23A SWAP1 PUSH2 0x891 JUMP JUMPDEST DUP1 PUSH1 0x1F ADD PUSH1 0x20 DUP1 SWAP2 DIV MUL PUSH1 0x20 ADD PUSH1 0x40 MLOAD SWAP1 DUP2 ADD PUSH1 0x40 MSTORE DUP1 SWAP3 SWAP2 SWAP1 DUP2 DUP2 MSTORE PUSH1 0x20 ADD DUP3 DUP1 SLOAD PUSH2 0x266 SWAP1 PUSH2 0x891 JUMP JUMPDEST DUP1 ISZERO PUSH2 0x2B3 JUMPI DUP1 PUSH1 0x1F LT PUSH2 0x288 JUMPI PUSH2 0x100 DUP1 DUP4 SLOAD DIV MUL DUP4 MSTORE SWAP2 PUSH1 0x20 ADD SWAP2 PUSH2 0x2B3 JUMP JUMPDEST DUP3 ADD SWAP2 SWAP1 PUSH1 0x0 MSTORE PUSH1 0x20 PUSH1 0x0 KECCAK256 SWAP1 JUMPDEST DUP2 SLOAD DUP2 MSTORE SWAP1 PUSH1 0x1 ADD SWAP1 PUSH1 0x20 ADD DUP1 DUP4 GT PUSH2 0x296 JUMPI DUP3 SWAP1 SUB PUSH1 0x1F AND DUP3 ADD SWAP2 JUMPDEST POP POP POP POP POP DUP2 MSTORE PUSH1 0x20 ADD PUSH1 0x1 DUP3 ADD DUP1 SLOAD PUSH2 0x2CC SWAP1 PUSH2 0x891 JUMP JUMPDEST DUP1 PUSH1 0x1F ADD PUSH1 0x20 DUP1 SWAP2 DIV MUL PUSH1 0x20 ADD PUSH1 0x40 MLOAD SWAP1 DUP2 ADD PUSH1 0x40 MSTORE DUP1 SWAP3 SWAP2 SWAP1 DUP2 DUP2 MSTORE PUSH1 0x20 ADD DUP3 DUP1 SLOAD PUSH2 0x2F8 SWAP1 PUSH2 0x891 JUMP JUMPDEST DUP1 ISZERO PUSH2 0x345 JUMPI DUP1 PUSH1 0x1F LT PUSH2 0x31A JUMPI PUSH2 0x100 DUP1 DUP4 SLOAD DIV MUL DUP4 MSTORE SWAP2 PUSH1 0x20 ADD SWAP2 PUSH2 0x345 JUMP JUMPDEST DUP3 ADD SWAP2 SWAP1 PUSH1 0x0 MSTORE PUSH1 0x20 PUSH1 0x0 KECCAK256 SWAP1 JUMPDEST DUP2 SLOAD DUP2 MSTORE SWAP1 PUSH1 0x1 ADD SWAP1 PUSH1 0x20 ADD DUP1 DUP4 GT PUSH2 0x328 JUMPI DUP3 SWAP1 SUB PUSH1 0x1F AND DUP3 ADD SWAP2 JUMPDEST POP POP POP POP POP DUP2 MSTORE PUSH1 0x20 ADD PUSH1 0x2 DUP3 ADD SLOAD DUP2 MSTORE POP POP SWAP1 POP DUP1 PUSH1 0x0 ADD MLOAD DUP2 PUSH1 0x20 ADD MLOAD DUP3 PUSH1 0x40 ADD MLOAD SWAP4 POP SWAP4 POP SWAP4 POP POP SWAP2 SWAP4 SWAP1 SWAP3 POP JUMP JUMPDEST DUP2 SELFBALANCE LT ISZERO PUSH2 0x384 JUMPI PUSH1 0x0 DUP1 REVERT JUMPDEST PUSH1 0x0 PUSH20 0xFFFFFFFFFFFFFFFFFFFFFFFFFFFFFFFFFFFFFFFF AND DUP2 PUSH20 0xFFFFFFFFFFFFFFFFFFFFFFFFFFFFFFFFFFFFFFFF AND EQ ISZERO PUSH2 0x3BE JUMPI PUSH1 0x0 DUP1 REVERT JUMPDEST DUP1 PUSH20 0xFFFFFFFFFFFFFFFFFFFFFFFFFFFFFFFFFFFFFFFF AND PUSH2 0x8FC DUP4 SWAP1 DUP2 ISZERO MUL SWAP1 PUSH1 0x40 MLOAD PUSH1 0x0 PUSH1 0x40 MLOAD DUP1 DUP4 SUB DUP2 DUP6 DUP9 DUP9 CALL SWAP4 POP POP POP POP ISZERO DUP1 ISZERO PUSH2 0x404 JUMPI RETURNDATASIZE PUSH1 0x0 DUP1 RETURNDATACOPY RETURNDATASIZE PUSH1 0x0 REVERT JUMPDEST POP POP POP JUMP JUMPDEST PUSH1 0x0 PUSH1 0x1 SLOAD SWAP1 POP SWAP1 JUMP JUMPDEST PUSH1 0x0 DUP1 SLOAD SWAP1 PUSH2 0x100 EXP SWAP1 DIV PUSH20 0xFFFFFFFFFFFFFFFFFFFFFFFFFFFFFFFFFFFFFFFF AND DUP2 JUMP JUMPDEST JUMP JUMPDEST DUP3 DUP1 SLOAD PUSH2 0x445 SWAP1 PUSH2 0x891 JUMP JUMPDEST SWAP1 PUSH1 0x0 MSTORE PUSH1 0x20 PUSH1 0x0 KECCAK256 SWAP1 PUSH1 0x1F ADD PUSH1 0x20 SWAP1 DIV DUP2 ADD SWAP3 DUP3 PUSH2 0x467 JUMPI PUSH1 0x0 DUP6 SSTORE PUSH2 0x4AE JUMP JUMPDEST DUP3 PUSH1 0x1F LT PUSH2 0x480 JUMPI DUP1 MLOAD PUSH1 0xFF NOT AND DUP4 DUP1 ADD OR DUP6 SSTORE PUSH2 0x4AE JUMP JUMPDEST DUP3 DUP1 ADD PUSH1 0x1 ADD DUP6 SSTORE DUP3 ISZERO PUSH2 0x4AE JUMPI SWAP2 DUP3 ADD JUMPDEST DUP3 DUP2 GT ISZERO PUSH2 0x4AD JUMPI DUP3 MLOAD DUP3 SSTORE SWAP2 PUSH1 0x20 ADD SWAP2 SWAP1 PUSH1 0x1 ADD SWAP1 PUSH2 0x492 JUMP JUMPDEST JUMPDEST POP SWAP1 POP PUSH2 0x4BB SWAP2 SWAP1 PUSH2 0x4BF JUMP JUMPDEST POP SWAP1 JUMP JUMPDEST JUMPDEST DUP1 DUP3 GT ISZERO PUSH2 0x4D8 JUMPI PUSH1 0x0 DUP2 PUSH1 0x0 SWAP1 SSTORE POP PUSH1 0x1 ADD PUSH2 0x4C0 JUMP JUMPDEST POP SWAP1 JUMP JUMPDEST PUSH1 0x0 PUSH2 0x4EF PUSH2 0x4EA DUP5 PUSH2 0x75E JUMP JUMPDEST PUSH2 0x739 JUMP JUMPDEST SWAP1 POP DUP3 DUP2 MSTORE PUSH1 0x20 DUP2 ADD DUP5 DUP5 DUP5 ADD GT ISZERO PUSH2 0x507 JUMPI PUSH1 0x0 DUP1 REVERT JUMPDEST PUSH2 0x512 DUP5 DUP3 DUP6 PUSH2 0x84F JUMP JUMPDEST POP SWAP4 SWAP3 POP POP POP JUMP JUMPDEST PUSH1 0x0 DUP2 CALLDATALOAD SWAP1 POP PUSH2 0x529 DUP2 PUSH2 0x992 JUMP JUMPDEST SWAP3 SWAP2 POP POP JUMP JUMPDEST PUSH1 0x0 DUP2 CALLDATALOAD SWAP1 POP PUSH2 0x53E DUP2 PUSH2 0x9A9 JUMP JUMPDEST SWAP3 SWAP2 POP POP JUMP JUMPDEST PUSH1 0x0 DUP3 PUSH1 0x1F DUP4 ADD SLT PUSH2 0x555 JUMPI PUSH1 0x0 DUP1 REVERT JUMPDEST DUP2 CALLDATALOAD PUSH2 0x565 DUP5 DUP3 PUSH1 0x20 DUP7 ADD PUSH2 0x4DC JUMP JUMPDEST SWAP2 POP POP SWAP3 SWAP2 POP POP JUMP JUMPDEST PUSH1 0x0 DUP2 CALLDATALOAD SWAP1 POP PUSH2 0x57D DUP2 PUSH2 0x9C0 JUMP JUMPDEST SWAP3 SWAP2 POP POP JUMP JUMPDEST PUSH1 0x0 PUSH1 0x20 DUP3 DUP5 SUB SLT ISZERO PUSH2 0x595 JUMPI PUSH1 0x0 DUP1 REVERT JUMPDEST PUSH1 0x0 PUSH2 0x5A3 DUP5 DUP3 DUP6 ADD PUSH2 0x51A JUMP JUMPDEST SWAP2 POP POP SWAP3 SWAP2 POP POP JUMP JUMPDEST PUSH1 0x0 DUP1 PUSH1 0x0 PUSH1 0x60 DUP5 DUP7 SUB SLT ISZERO PUSH2 0x5C1 JUMPI PUSH1 0x0 DUP1 REVERT JUMPDEST PUSH1 0x0 DUP5 ADD CALLDATALOAD PUSH8 0xFFFFFFFFFFFFFFFF DUP2 GT ISZERO PUSH2 0x5DB JUMPI PUSH1 0x0 DUP1 REVERT JUMPDEST PUSH2 0x5E7 DUP7 DUP3 DUP8 ADD PUSH2 0x544 JUMP JUMPDEST SWAP4 POP POP PUSH1 0x20 DUP5 ADD CALLDATALOAD PUSH8 0xFFFFFFFFFFFFFFFF DUP2 GT ISZERO PUSH2 0x604 JUMPI PUSH1 0x0 DUP1 REVERT JUMPDEST PUSH2 0x610 DUP7 DUP3 DUP8 ADD PUSH2 0x544 JUMP JUMPDEST SWAP3 POP POP PUSH1 0x40 PUSH2 0x621 DUP7 DUP3 DUP8 ADD PUSH2 0x56E JUMP JUMPDEST SWAP2 POP POP SWAP3 POP SWAP3 POP SWAP3 JUMP JUMPDEST PUSH1 0x0 DUP1 PUSH1 0x40 DUP4 DUP6 SUB SLT ISZERO PUSH2 0x63E JUMPI PUSH1 0x0 DUP1 REVERT JUMPDEST PUSH1 0x0 PUSH2 0x64C DUP6 DUP3 DUP7 ADD PUSH2 0x56E JUMP JUMPDEST SWAP3 POP POP PUSH1 0x20 PUSH2 0x65D DUP6 DUP3 DUP7 ADD PUSH2 0x52F JUMP JUMPDEST SWAP2 POP POP SWAP3 POP SWAP3 SWAP1 POP JUMP JUMPDEST PUSH2 0x670 DUP2 PUSH2 0x813 JUMP JUMPDEST DUP3 MSTORE POP POP JUMP JUMPDEST PUSH1 0x0 PUSH2 0x681 DUP3 PUSH2 0x78F JUMP JUMPDEST PUSH2 0x68B DUP2 DUP6 PUSH2 0x79A JUMP JUMPDEST SWAP4 POP PUSH2 0x69B DUP2 DUP6 PUSH1 0x20 DUP7 ADD PUSH2 0x85E JUMP JUMPDEST PUSH2 0x6A4 DUP2 PUSH2 0x981 JUMP JUMPDEST DUP5 ADD SWAP2 POP POP SWAP3 SWAP2 POP POP JUMP JUMPDEST PUSH2 0x6B8 DUP2 PUSH2 0x845 JUMP JUMPDEST DUP3 MSTORE POP POP JUMP JUMPDEST PUSH1 0x0 PUSH1 0x20 DUP3 ADD SWAP1 POP PUSH2 0x6D3 PUSH1 0x0 DUP4 ADD DUP5 PUSH2 0x667 JUMP JUMPDEST SWAP3 SWAP2 POP POP JUMP JUMPDEST PUSH1 0x0 PUSH1 0x60 DUP3 ADD SWAP1 POP DUP2 DUP2 SUB PUSH1 0x0 DUP4 ADD MSTORE PUSH2 0x6F3 DUP2 DUP7 PUSH2 0x676 JUMP JUMPDEST SWAP1 POP DUP2 DUP2 SUB PUSH1 0x20 DUP4 ADD MSTORE PUSH2 0x707 DUP2 DUP6 PUSH2 0x676 JUMP JUMPDEST SWAP1 POP PUSH2 0x716 PUSH1 0x40 DUP4 ADD DUP5 PUSH2 0x6AF JUMP JUMPDEST SWAP5 SWAP4 POP POP POP POP JUMP JUMPDEST PUSH1 0x0 PUSH1 0x20 DUP3 ADD SWAP1 POP PUSH2 0x733 PUSH1 0x0 DUP4 ADD DUP5 PUSH2 0x6AF JUMP JUMPDEST SWAP3 SWAP2 POP POP JUMP JUMPDEST PUSH1 0x0 PUSH2 0x743 PUSH2 0x754 JUMP JUMPDEST SWAP1 POP PUSH2 0x74F DUP3 DUP3 PUSH2 0x8C3 JUMP JUMPDEST SWAP2 SWAP1 POP JUMP JUMPDEST PUSH1 0x0 PUSH1 0x40 MLOAD SWAP1 POP SWAP1 JUMP JUMPDEST PUSH1 0x0 PUSH8 0xFFFFFFFFFFFFFFFF DUP3 GT ISZERO PUSH2 0x779 JUMPI PUSH2 0x778 PUSH2 0x952 JUMP JUMPDEST JUMPDEST PUSH2 0x782 DUP3 PUSH2 0x981 JUMP JUMPDEST SWAP1 POP PUSH1 0x20 DUP2 ADD SWAP1 POP SWAP2 SWAP1 POP JUMP JUMPDEST PUSH1 0x0 DUP2 MLOAD SWAP1 POP SWAP2 SWAP1 POP JUMP JUMPDEST PUSH1 0x0 DUP3 DUP3 MSTORE PUSH1 0x20 DUP3 ADD SWAP1 POP SWAP3 SWAP2 POP POP JUMP JUMPDEST PUSH1 0x0 PUSH2 0x7B6 DUP3 PUSH2 0x845 JUMP JUMPDEST SWAP2 POP PUSH2 0x7C1 DUP4 PUSH2 0x845 JUMP JUMPDEST SWAP3 POP DUP3 PUSH32 0xFFFFFFFFFFFFFFFFFFFFFFFFFFFFFFFFFFFFFFFFFFFFFFFFFFFFFFFFFFFFFFFF SUB DUP3 GT ISZERO PUSH2 0x7F6 JUMPI PUSH2 0x7F5 PUSH2 0x8F4 JUMP JUMPDEST JUMPDEST DUP3 DUP3 ADD SWAP1 POP SWAP3 SWAP2 POP POP JUMP JUMPDEST PUSH1 0x0 PUSH2 0x80C DUP3 PUSH2 0x825 JUMP JUMPDEST SWAP1 POP SWAP2 SWAP1 POP JUMP JUMPDEST PUSH1 0x0 PUSH2 0x81E DUP3 PUSH2 0x825 JUMP JUMPDEST SWAP1 POP SWAP2 SWAP1 POP JUMP JUMPDEST PUSH1 0x0 PUSH20 0xFFFFFFFFFFFFFFFFFFFFFFFFFFFFFFFFFFFFFFFF DUP3 AND SWAP1 POP SWAP2 SWAP1 POP JUMP JUMPDEST PUSH1 0x0 DUP2 SWAP1 POP SWAP2 SWAP1 POP JUMP JUMPDEST DUP3 DUP2 DUP4 CALLDATACOPY PUSH1 0x0 DUP4 DUP4 ADD MSTORE POP POP POP JUMP JUMPDEST PUSH1 0x0 JUMPDEST DUP4 DUP2 LT ISZERO PUSH2 0x87C JUMPI DUP1 DUP3 ADD MLOAD DUP2 DUP5 ADD MSTORE PUSH1 0x20 DUP2 ADD SWAP1 POP PUSH2 0x861 JUMP JUMPDEST DUP4 DUP2 GT ISZERO PUSH2 0x88B JUMPI PUSH1 0x0 DUP5 DUP5 ADD MSTORE JUMPDEST POP POP POP POP JUMP JUMPDEST PUSH1 0x0 PUSH1 0x2 DUP3 DIV SWAP1 POP PUSH1 0x1 DUP3 AND DUP1 PUSH2 0x8A9 JUMPI PUSH1 0x7F DUP3 AND SWAP2 POP JUMPDEST PUSH1 0x20 DUP3 LT DUP2 EQ ISZERO PUSH2 0x8BD JUMPI PUSH2 0x8BC PUSH2 0x923 JUMP JUMPDEST JUMPDEST POP SWAP2 SWAP1 POP JUMP JUMPDEST PUSH2 0x8CC DUP3 PUSH2 0x981 JUMP JUMPDEST DUP2 ADD DUP2 DUP2 LT PUSH8 0xFFFFFFFFFFFFFFFF DUP3 GT OR ISZERO PUSH2 0x8EB JUMPI PUSH2 0x8EA PUSH2 0x952 JUMP JUMPDEST JUMPDEST DUP1 PUSH1 0x40 MSTORE POP POP POP JUMP JUMPDEST PUSH32 0x4E487B7100000000000000000000000000000000000000000000000000000000 PUSH1 0x0 MSTORE PUSH1 0x11 PUSH1 0x4 MSTORE PUSH1 0x24 PUSH1 0x0 REVERT JUMPDEST PUSH32 0x4E487B7100000000000000000000000000000000000000000000000000000000 PUSH1 0x0 MSTORE PUSH1 0x22 PUSH1 0x4 MSTORE PUSH1 0x24 PUSH1 0x0 REVERT JUMPDEST PUSH32 0x4E487B7100000000000000000000000000000000000000000000000000000000 PUSH1 0x0 MSTORE PUSH1 0x41 PUSH1 0x4 MSTORE PUSH1 0x24 PUSH1 0x0 REVERT JUMPDEST PUSH1 0x0 PUSH1 0x1F NOT PUSH1 0x1F DUP4 ADD AND SWAP1 POP SWAP2 SWAP1 POP JUMP JUMPDEST PUSH2 0x99B DUP2 PUSH2 0x801 JUMP JUMPDEST DUP2 EQ PUSH2 0x9A6 JUMPI PUSH1 0x0 DUP1 REVERT JUMPDEST POP JUMP JUMPDEST PUSH2 0x9B2 DUP2 PUSH2 0x813 JUMP JUMPDEST DUP2 EQ PUSH2 0x9BD JUMPI PUSH1 0x0 DUP1 REVERT JUMPDEST POP JUMP JUMPDEST PUSH2 0x9C9 DUP2 PUSH2 0x845 JUMP JUMPDEST DUP2 EQ PUSH2 0x9D4 JUMPI PUSH1 0x0 DUP1 REVERT JUMPDEST POP JUMP INVALID LOG2 PUSH5 0x6970667358 0x22 SLT KECCAK256 0xE0 0xD4 DUP9 0xA5 0x1F CREATE 0xE6 LOG1 0xB4 0xB1 DUP16 0xB0 DIV 0xCB INVALID 0x24 0x28 0xAD PUSH19 0xB9B5018E67073E4E19D50F14E64736F6C6343 STOP ADDMOD DIV STOP CALLER "
				},
				"gasEstimates": {
					"creation": {
						"codeDepositCost": "514600",
						"executionCost": "20555",
						"totalCost": "535155"
					},
					"external": {
						"Dataestable()": "208",
						"EstadoAlmacen()": "1181",
						"Invertir(string,string,uint256)": "infinite",
						"getUser(address)": "infinite",
						"owner()": "1277",
						"transferMoney(uint256,address)": "infinite"
					},
					"internal": {
						"retiro()": "infinite"
					}
				},
				"methodIdentifiers": {
					"Dataestable()": "a2f45014",
					"EstadoAlmacen()": "8098831b",
					"Invertir(string,string,uint256)": "00895d4a",
					"getUser(address)": "6f77926b",
					"owner()": "8da5cb5b",
					"transferMoney(uint256,address)": "792889aa"
				}
			},
			"storageLayout": {
				"storage": [
					{
						"astId": 3,
						"contract": "contracts/contratoB.sol:actions",
						"label": "owner",
						"offset": 0,
						"slot": "0",
						"type": "t_address_payable"
					},
					{
						"astId": 5,
						"contract": "contracts/contratoB.sol:actions",
						"label": "boveda",
						"offset": 0,
						"slot": "1",
						"type": "t_uint256"
					},
					{
						"astId": 8,
						"contract": "contracts/contratoB.sol:actions",
						"label": "limite",
						"offset": 0,
						"slot": "2",
						"type": "t_uint256"
					},
					{
						"astId": 20,
						"contract": "contracts/contratoB.sol:actions",
						"label": "User",
						"offset": 0,
						"slot": "3",
						"type": "t_mapping(t_address,t_struct(DataInvest)15_storage)"
					}
				],
				"types": {
					"t_address": {
						"encoding": "inplace",
						"label": "address",
						"numberOfBytes": "20"
					},
					"t_address_payable": {
						"encoding": "inplace",
						"label": "address payable",
						"numberOfBytes": "20"
					},
					"t_mapping(t_address,t_struct(DataInvest)15_storage)": {
						"encoding": "mapping",
						"key": "t_address",
						"label": "mapping(address => struct actions.DataInvest)",
						"numberOfBytes": "32",
						"value": "t_struct(DataInvest)15_storage"
					},
					"t_string_storage": {
						"encoding": "bytes",
						"label": "string",
						"numberOfBytes": "32"
					},
					"t_struct(DataInvest)15_storage": {
						"encoding": "inplace",
						"label": "struct actions.DataInvest",
						"members": [
							{
								"astId": 10,
								"contract": "contracts/contratoB.sol:actions",
								"label": "name",
								"offset": 0,
								"slot": "0",
								"type": "t_string_storage"
							},
							{
								"astId": 12,
								"contract": "contracts/contratoB.sol:actions",
								"label": "wallet",
								"offset": 0,
								"slot": "1",
								"type": "t_string_storage"
							},
							{
								"astId": 14,
								"contract": "contracts/contratoB.sol:actions",
								"label": "inversion",
								"offset": 0,
								"slot": "2",
								"type": "t_uint256"
							}
						],
						"numberOfBytes": "96"
					},
					"t_uint256": {
						"encoding": "inplace",
						"label": "uint256",
						"numberOfBytes": "32"
					}
				}
			},
			"userdoc": {
				"kind": "user",
				"methods": {},
				"version": 1
			}
		}
	}
}